:020000040800F2
:10000000305800205D020008F158000887430008BE
:1000100099550008A30F0008F578000800000000BB
:100020000000000000000000000000009D0100082A
:100030007D14000800000000F9010008717000083C
:1000400077020008770200087702000877020008AC
:1000500077020008770200087F1400087702000882
:1000600077020008851400088B1400087702000846
:10007000E510000877020008770200087702000800
:10008000770200087702000877020008770200086C
:10009000A50F0008770200087702000891140008F5
:1000A000770200087702000877020008770200084C
:1000B000717100087D71000877020008770200085E
:1000C000770200087702000877020008770200082C
:1000D0007702000877020008770200088577000899
:1000E000770200087702000877020008957100087F
:1000F00077020008770200087702000877020008FC
:1001000077020008770200087702000877020008EB
:10011000770200087702000889710008770200085A
:1001200077020008F1100008FD100008CD13000848
:1001300077020008770200087702000877020008BB
:10014000B10F000877020008770200087702000864
:10015000770200087702000877020008A1780008FB
:10016000770200087702000877020008770200088B
:1001700077020008770200087702000800000000FC
:100180007702000877020008DFF80CD000F03AFC94
:10019000004800477D8A0008305800202C4B196821
:1001A0000868B0E8F04F80F30988BFF36F8F4FF015
:1001B000000080F3118870470000000008480068C4
:1001C000006880F308884FF0000080F3148862B65E
:1001D00061B6BFF34F8FBFF36F8F00DF00BF00BF6B
:1001E00008ED00E0DFF80C00016841F470010160E7
:1001F000704700BF88ED00E0EFF30980BFF36F8F19
:10020000134B1A681EF0100F08BF20ED108A20E96A
:10021000F04F106009B44FF0500080F31188BFF325
:100220004F8FBFF36F8F09F06BFA4FF0000080F330
:10023000118809BC19680868B0E8F04F1EF0100F6B
:1002400008BFB0EC108A80F30988BFF36F8F704746
:1002500050000020EFF305807047000006488047FB
:1002600006480047FEE7FEE7FEE7FEE7FEE7FEE79B
:10027000FEE7FEE7FEE7FEE71D71000889010008C2
:10028000DFED3C0A20EE200AFDEEC00AB5EEC00A02
:1002900010EE902AF1EE10FA38BF521E00EE902AAE
:1002A000DFF8D8C0B0EE084AF8EEE00A30EE600A97
:1002B000DFED310A60EE200ABCEEE00A10EE102AF3
:1002C000C2F3080200EE102A02F180030CEB820256
:1002D000B8EE400AC3F308030CEB830330EEC00A08
:1002E000D2ED000A93ED002A93ED011AF1EE601AA7
:1002F000D2ED010A71EE422AF1EE603ADFED200AFA
:1003000031EEA31A21EE203AB0EE001A41EE213A66
:1003100001EE623A62EE842A43EEE02A40EE032ABE
:1003200060EE222A41EEA02A00EE222A81ED002A68
:10033000D3ED001A93ED013AD2ED002A92ED012A95
:1003400071EE833A01EE213A32EE622A63EEA03A70
:1003500041EE423A22EE042A03EE602A00EE232AFE
:1003600020EE021A01EEA01A40EE012AC0ED002A8A
:1003700070470000610B363B00000044C09F00083E
:10038000DB0F493C2DE9F05F0546002092469B4675
:1003900088460646814640241BE02846414647469B
:1003A000224600F028FA53465A46C01A914110D30B
:1003B00011461846224600F00FFA2D1A67EB010885
:1003C0004F4622460120002100F006FA17EB0009F3
:1003D0004E41201EA4F10104DFDC484631462A4686
:1003E0004346BDE8F09F40EA01039B0703D009E0C4
:1003F00008C9121F08C0042AFAD203E011F8013B11
:1004000000F8013B521EF9D27047D2B201E000F869
:10041000012B491EFBD270470022F6E710B51346A8
:100420000A4604461946FFF7F0FF204610BD2DE9A5
:10043000FE4F804681EA0300C00F0C46009021F079
:10044000004123F00045B8EB0200A94105D2404627
:10045000214690461C460B46024623F000401043BE
:1004600047D0270DC7F30A00C3F30A510290401A80
:10047000019040286BDAC3F3130040F4801B00980E
:10048000924620B10023D2EB030A63EB0B0B0198D9
:100490005946C0F14002504600F09EF906460D460E
:1004A00050465946019A00F0B6F910EB0800614138
:1004B000002487EA115284EAE7731A4340D0009A75
:1004C00062B3019A012A4FEA075215DC001B61EB67
:1004D00002014FF0004202EA0752CDE90042001C3F
:1004E00041F5801132462B4600F0EDF903B0BDE82E
:1004F000F08F40462146F9E7001B61EB0201001C2A
:1005000041F5801300185B412018A2F5001747EB56
:10051000030140EAD570B6196D4111E06D084FEA4C
:10052000360645EAC0754FEA0752001B61EB02012F
:10053000001C41F5801149084FEA30000019514173
:1005400032462B4603B0BDE8F04F00F0ADB900983D
:10055000012240000023D0EB020263EBE07300981D
:1005600021464FEAE074B8EB000061EB0401E9E7D3
:1005700083F000435BE781F0004158E72DE9FE4F2F
:1005800081EA030404F0004421F0004100944FF09C
:10059000000B23F0004350EA01045ED052EA03044A
:1005A0005BD0C3F30A54C1F30A552C44A4F2F334CC
:1005B0000194A0FB0254C1F3130141F48011C3F371
:1005C000130343F4801301FB024400FB034E840A2F
:1005D000970A44EA815447EA8357A4FB07680295C7
:1005E0008D0A05FB07854FEA932C04FB0C54270565
:1005F000029D4FEA065847EA1637B5EB08056EEB41
:10060000070C870E920E47EA811742EA8312A7FB76
:100610000201B6EB0B0164EB00042B0D43EA0C3333
:100620005E1844EB1C50DA465146E7FB0201C5F365
:1006300013044FEA0B3343EA14534FEA0432019C8C
:1006400043EA0603A4F10C040294009CCDE900B433
:1006500000F039F903B0BDE8F08F00200146F9E75A
:100660002DE9F04D81EA030404F0004B21F0004530
:1006700014464FF0000A23F0004150EA050220D052
:1006800054EA01021DD0C5F30A570246C5F313030D
:10069000C1F31300C1F30A5640F4801543F48013EC
:1006A000A7EB0608101BD64608F2FD3873EB0500D1
:1006B00002D308F1010801E092185B41B8F1000F84
:1006C00003DA00200146BDE8F08D00204FF48011D0
:1006D000064684460EE0171B73EB050705D3121B75
:1006E00063EB050306434CEA010C49084FEA30006E
:1006F00092185B4150EA0107EDD152EA030012D093
:1007000082EA040083EA0501084305D0101BAB41CF
:1007100006D20122002306E000224FF0004302E04F
:100720006FF0010253101AEB06004CEB085110EB6E
:100730000A0041EB0B01BDE8F04D00F0B5B80EB575
:10074000C10F80EAE0700844CA07002140F2334339
:100750008DE80E000A460B4600F0B5F803B000BD68
:100760000EB540F2334102910021CDE900110A4655
:100770000B4600F0A8F803B000BD00F0004230F0D6
:1007800000400AD0C10D01F56071C0F3160042EAC5
:100790000151C208400711437047002001467047CD
:1007A00001F0004330B421F0004150EA010206D0CC
:1007B0000A0DA2F56072C1F31301002A02DC30BCFD
:1007C00000207047440F44EAC104C100E01830BC67
:1007D00000EBC25000F031B8202A04DB203A00FAC6
:1007E00002F1002070479140C2F1200320FA03F388
:1007F000194390407047202A04DB203A21FA02F086
:100800000021704721FA02F3D040C2F1200291404A
:10081000084319467047202A06DBCB17203A41FAD5
:1008200002F043EAE07306E041FA02F3D040C2F17D
:10083000200291400843194670470029A8BF70471D
:10084000401C490008BF20F00100704710B4B0FA06
:1008500080FC00FA0CF050EA010404BF10BC7047A1
:1008600049B1CCF1200421FA04F411FA0CF118BFBB
:10087000012121430843A3EB0C01CB1D4FEA00618A
:100880004FEA102042BF002010BC704700EBC3505D
:1008900010440029A4BF10BC7047401C490008BF89
:1008A00020F0010010BC704710B5141E73F1000455
:1008B00008DA401C41F1000192185B411A4301D152
:1008C00020F0010010BD2DE9F04D92469B4611B17C
:1008D000B1FA81F202E0B0FA80F220329046FFF7DE
:1008E0007BFF04460F4640EA0A0041EA0B015346EB
:1008F0005A46084313D0114653EA010019D0C8F1F3
:1009000040025046FFF777FF05460E4650465946CF
:100910004246FFF761FF084305D0012004E020466E
:100920003946BDE8F08D0020054346EAE0762C43C9
:1009300037430A986305E40AA0EB08000022FD0A89
:1009400044EA47540A3002D500200146E9E7010590
:1009500010196941DDE9084500196941BDE8F04D0C
:10096000A2E72DE9F04D00231A461B1A8A4103DB4A
:1009700000200146BDE8F08DC1F30A52C1F3130116
:1009800041F480154FF0000BD10702D100186D41E2
:10099000521E0027044640F2FF11384601EB620A5E
:1009A0003E468046024600204FF48011FFF723FFA9
:1009B000C2197141BB1846EB0100B4EB030C75EB97
:1009C000000C04D3E41A65EB000517460E46241903
:1009D00008F101006D4180463428E3DDF91946EB4A
:1009E0000600091BA84103D24FF0FF32134601E075
:1009F000002213461BEB070046EB0A51BDE8F04D01
:100A0000FFF752BF064C074D06E0E06840F00103D7
:100A100094E8070098471034AC42F6D3FFF7B8FBD0
:100A200020A8000840A8000870B58C1810F8015BD9
:100A300015F0070301D110F8013B2A1106D110F877
:100A4000012B03E010F8016B01F8016B5B1EF9D17B
:100A50002B0705D40023521E0DD401F8013BFAE701
:100A600010F8013BCB1A921C03E013F8015B01F86C
:100A7000015B521EF9D5A142D8D3002070BDD0ED44
:100A8000000AF4EEC00AF1EE10FA01DD80ED000A72
:100A9000D0ED000AB1EE400AF4EEC00AF1EE10FA11
:100AA00001D280ED000A7047B7EE000A80ED000A1F
:100AB0009FED040A80ED010A80ED020A80ED030A31
:100AC00070470000000000009FED053AD2EC031AC9
:100AD000B0EE434AF0EE433A91EC030A04F0A2BAB6
:100AE000000000001CB50C4B08224FF400741A6182
:100AF00000229A601C60DA600B0A8DF804308DF8D1
:100B000005108DF8062000928DF8072001236A4613
:100B1000014901F009F91CBD0847002001221021FC
:100B2000014801F0FBBF000000000240002210213C
:100B3000014801F0F3BF00000000024070470000D0
:100B400001221146014801F0E9BF00000004024003
:100B500000220121014801F0E1BF00000004024031
:100B600030B5437804781B021BB2234300EE103AE1
:100B7000194CB8EEC00AD4ED000A20EE200A81ED2F
:100B8000000AC37885781B021BB22B4300EE103A93
:100B9000D4ED000AB8EEC00A20EE200A81ED010A69
:100BA000437904791B021BB2234300EE103AB8EEDE
:100BB000C00A20EE200ADFED090A81ED020AD0F812
:100BC000060020F07F4000EE100AB8EE400A20EE4A
:100BD000200A82ED000A30BDB000002000401C4217
:100BE000704707F060BF07F005BC000010B5427801
:100BF0000378120212B21A4300EE102A124BB8EE1A
:100C0000C00AD3ED010A20EE200A81ED000AC27865
:100C10008478120212B2224300EE102AD3ED010AA8
:100C2000B8EEC00A20EE200A81ED010A427900796F
:100C3000120212B2024300EE102AB8EEC00A20EEF1
:100C4000200A81ED020A10BDB000002010B5FFF7A8
:100C500075FFFFF7C5FF07F045F908B1802402E0F2
:100C600007F0ACF8044607F00BFB10B144F040006D
:100C700010BD07F097FA204310BD00002DE9FC419C
:100C80000746002016460D4600900190FFF74EFFE4
:100C9000922000F0BDF806226946122000F09AF872
:100CA000FFF73CFF9DF801009DF80010000200B224
:100CB000084300EE100A464CB8EEC00AD4ED000A14
:100CC00020EE200A85ED000A9DF803009DF8021031
:100CD000000200B2084300EE100AD4ED000AB8EE9C
:100CE000C00A20EE200A85ED010A9DF805009DF856
:100CF0000410000200B2084300EE100AB8EEC00A69
:100D000020EE200A85ED020AFFF722FF082269463D
:100D1000002000F05FF8FFF713FF9DF800000F2898
:100D200030D19DF803009DF80210000200B2084384
:100D300000EE100AD4ED010AB8EEC00A20EE200A37
:100D400087ED000A9DF805009DF80410000200B22E
:100D5000084300EE100AD4ED010AB8EEC00A20EEF6
:100D6000200A87ED010A9DF807009DF80610000291
:100D700000B2084300EE100AB8EEC00A20EE200AC6
:100D800087ED020AFFF7D2FEA22000F041F802220E
:100D90006946222000F01EF8FFF7C0FE9DF8000013
:100DA0009DF80110C00040EA5110B0F5806F01DBE2
:100DB000A0F5006000EE100AB4EE001AF8EEC00ACA
:100DC000B3EE070A00EE810A86ED000ABDE8FC8159
:100DD000B000002070B514460D4640F0800000F0D1
:100DE00017F806E0552000F013F8641E05F8010B13
:100DF000E4B2002CF6D170BD10B50C4640F0800076
:100E000000F006F8552000F003F8207010BD000037
:100E100001B582B04FF47A700090012301AA02A9B3
:100E2000024802F02FFD9DF804000EBD6C04002066
:100E300002784078D20042EA5010B0F5806F01DBB2
:100E4000A0F5006000EE100AB4EE001AF8EEC00A39
:100E5000B3EE070A00EE810A81ED000A704710B573
:100E60000C46FFF7D5FF2046BDE81040FFF7D0BF86
:100E700010B503F02BFE03F093FD03F04DFD03F0DE
:100E80006DFD03F009FF03F027FF03F0A1FF04F05D
:100E90001DF804F04DF803F075FF04F06DF804F050
:100EA00087F804F0A3F803F03BFF07F08FFA174828
:100EB00000F0DCF8164800F0D9F8144801F04CFBBB
:100EC000134801F049FB00F0EDFA12480068C168D0
:100ED00041F01001C16010480068C16841F0100184
:100EE000C16012220D490B4800F050F864220C49F1
:100EF000094800F04BF80221044800F003FFBDE868
:100F000010400221024800F0FDBE000074010020E4
:100F10009C01002004070020440700201C480020FA
:100F20004248002070B5044690F83900202801D0CE
:100F3000212829D121B31AB394F83800012823D0ED
:100F4000012084F83800A162A2850025E56394F8A9
:100F50003900212816D0222084F83900084613468B
:100F6000666B216802463046091D01F063FC20686B
:100F7000416941F04001416184F83850002070BD62
:100F8000012070BD2320E7E7022070BD10B50446A4
:100F9000FFF7C8FF2068C16841F01001C160002060
:100FA00010BDFEE7014801F01EB8000074010020EA
:100FB000014801F018B800009C01002070477047FC
:100FC0001CB5144B08241C6100249C60DC604FF4A9
:100FD00090741C600B891C0A8DF800408DF801305C
:100FE0008B8A1B0A8DF80230097D8DF80310D178A9
:100FF0008DF8041011788DF8051091788DF8061091
:1010000051788DF8071001236A46024900F08CFEE2
:101010001CBD0000504700202DE9FC41124CDDE9C9
:101020000867082525610025A560E5604FF48875EF
:1010300025600C0A8DF800408DF80110110A8DF81A
:101040000210190A8DF804108DF805308DF8032070
:101050008DF806608DF8077001236A46024900F09A
:1010600063FEBDE8FC8100003847002000B58BB06E
:1010700000210122CDE90612039108920E22094BAC
:1010800004910091019102910992984200D1059139
:1010900004492831884200D10592694600F0A8FE33
:1010A0000BB000BD740100207CB50D4B40F2FF1465
:1010B00008251C6000249C60C3E903450B0A8DF8D9
:1010C00000308DF80110110A8DF802108DF8032000
:1010D00001236A460249019400F026FE7CBD00000F
:1010E000D8460020014801F06BBA000084070020B8
:1010F000014801F065BA0000E40700202DE9F05F27
:10110000A848A94BA94CC06CA74DA84EA64F006893
:10111000A549DFF89892DFF890A2DFF890B2DFF8E7
:1011200088E2A24A483B603418351836303F09F14E
:1011300078090AF1300A4FF4006C0BF1300BAEF174
:10114000180E884223D99849543926E0A84233D151
:101150004FF020080AE0504535D1E04606E000BFD8
:101160004FF4001802E000BF4FF0006811EA080FCA
:101170007CD08D49884253D9904205D0984203D003
:10118000A04201D0A8422FD14FF0200C45E0874962
:10119000A831884203D984495839096805E0834950
:1011A000483188428249F8D949689042D0D0984263
:1011B000CED0A042CCD0C9E7B042CED0B842CCD03D
:1011C0004845CAD0C7E75845CAD07045C8D0DFF8EF
:1011D000DC8108F190084045C2D0DFF8CC8108F1ED
:1011E00048084045C0D1BBE7B04216D0B84214D041
:1011F000484512D0504510D0584509D0704507D009
:101200006A499031884203D067494831884202D107
:101210004FF4001C01E04FF0006C63484C382AE0AA
:101220006249A831884229D9904205D0984203D01A
:10123000A04201D0A84202D14FF0200C19E0B042E8
:1012400017D0B84215D0484513D0504511D0584555
:1012500009D0704507D055499031884203D0524992
:101260004831884203D14FF4001C02E097E04FF070
:10127000006C4D485038C0F800C052E04B4948312E
:10128000884227D9904205D0984203D0A04201D08D
:10129000A84202D14FF0200C18E0B04216D0B8425C
:1012A00014D0484512D0504510D0584509D070454B
:1012B00007D03E499031884203D03B4948318842AB
:1012C00002D14FF4001C01E04FF0006C3848C0F828
:1012D0000CC026E0904205D0984203D0A04201D035
:1012E000A84202D14FF0200C18E0B04216D0B8420C
:1012F00014D0484512D0504510D0584509D07045FB
:1013000007D02A499031884203D027494831884282
:1013100002D14FF4001C01E04FF0006C2448C0F8EB
:1013200008C0244C207880070CD5207820F00200DB
:101330002070207840F004002070012211461E48E1
:1013400001F0ECFB1D4908781D4D80070CD508788D
:1013500020F002000870087840F0040008700122B4
:101360001021284601F0DAFB1649087880070CD5D1
:10137000087820F002000870087840F00400087037
:1013800001221021284601F0C9FB07F033FA20782A
:10139000400704D50C48016841F001010160BDE837
:1013A000F09F00006C04002058640240106002406E
:1013B0000060024040010020000402404101002082
:1013C0000000024042010020103C0140014801F0B1
:1013D000F7B800002405002001681823CAB2103AAB
:1013E000B2FBF3F2054B6FF30901032A9B5CC36563
:1013F00000D9091D8165084670470000689C0008F7
:1014000010B5014600208B698A6A4FF0C07453B151
:10141000B3F5005F15D072B1012A0CD0022A0AD0B0
:10142000032A09D104E01AB1012A06D0022A03D105
:10143000C96AC90100D5012010BDC96AA142FAD00C
:1014400010BD002AF7D0012AF2D0022AF3D0032AD5
:10145000F3D010BD30B50468256825F480252560DB
:10146000046863608368402B036803D09960006858
:10147000C26030BD9A600068C16030BD7047012015
:1014800001F068BA082001F065BA102001F062BAD4
:10149000202001F05FBA70470149486388637047B4
:1014A000000001402DE9F0411E480068016841F04C
:1014B0000101016000211B4802F0C2FD042119480E
:1014C00002F0BEFD0821174802F0BAFD0C211548B4
:1014D00002F0B6FD642001F0D1F9134C40F21A4538
:1014E000656340F6B837384601F0C8F940F24C461B
:1014F00066634FF4FA68404601F0C0F965634FF443
:101500007A7001F0BBF9A563384601F0B7F9A6631C
:10151000404601F0B3F9A563BDE8F041642001F055
:10152000ADB90000840500200000014010B50F4C4B
:101530002DED028BA068FFF702F941EC180BE06873
:101540000068406AFFF70CF99FED091B53EC112B63
:10155000FFF786F853EC182BFEF769FFFFF720F929
:10156000BDEC028B00EE100A10BD0000D847002031
:1015700000000000000059400B480C4903780B7034
:10158000027A0A73FF2B0ED1FE2A0CD1B0F801208B
:1015900052BA4A80B0F8032052BA8A8042798A71DE
:1015A000C08840BA0881704742480020A648002001
:1015B000FA4C4FF000092DED048B82B0A4F8049092
:1015C000A4F8029007F01AF808F012FADFF8D0B386
:1015D000F44DF54EDFF8D4A34FF008089FEDF48BDF
:1015E0000090EE4AEF490832F348FFF7E9FC022089
:1015F00004F058FA2078012804D002280FD00328DC
:101600001AD029E0E549083181F800807069002886
:1016100000DC404264281FDC022020701CE0DF490F
:10162000083181F80080E088401C80B2E0806428A6
:1016300012D90320207003E0D8490920083108702E
:101640006869002800DC4042642805DCD349022098
:10165000083184F800900870D04F083738780A288D
:1016600064D2DFE800F063F10564BDBDF163EFEE25
:101670009BED000ACA48F8EEC00A95ED050A303025
:10168000B8EEC00A07F056FA9AED070AB1EE400A22
:1016900010EE100AFFF771F853EC182BFEF76EFFEF
:1016A000FFF77EF800EE100ABD483030D0ED140A86
:1016B000803007F03FFABA48B03090ED140ABDEE22
:1016C000C00A10EE100A6080B548203090ED000A84
:1016D00000F58870F8EEC00A96ED050AB8EEC00A6B
:1016E00007F028FADAF81800FFF747F853EC182B40
:1016F000FEF744FFFFF754F800EE100AAF48D0EDB4
:10170000140A803007F016FAAC48803090ED140AC5
:10171000BDEEC00A10EE100AA080A94890ED060A9E
:101720009F48BDEEC00A103080ED000A20E19C48C1
:10173000103090ED000AA248F8EEC00A90ED060ABB
:10174000A04807F0F7F99AED070AB1EE400A10EE4B
:10175000100AFFF712F853EC182BFEF70FFFFFF7F4
:101760001FF800EE100A9748D0ED140A803007F0F9
:10177000E1F9944810F1800090ED140ABDEEC00A22
:1017800010EE100A60808648203090ED000A00BFFD
:10179000F8EEC00A96ED050A8848B8EEC00A07F0D0
:1017A000C9F9DAF81800FEF7E8FF53EC182BFEF73A
:1017B000E5FEFEF7F5FF00EE100A8048D0ED140AB2
:1017C000803007F0B7F97D48803090ED140ABDEE07
:1017D000C00A10EE100AA0806969CBF80010C7E0BB
:1017E0009BED020A6E48F8EEC00A95ED050A30300E
:1017F000B8EEC00A07F09EF99AED070AB1EE400A6A
:1018000010EE100AFEF7B9FF53EC182BFEF7B6FEE8
:10181000FEF7C6FF00EE100A61483030D0ED140A22
:10182000803007F087F96548803890ED140ABDEEE6
:10183000C00A10EE100A60805948203090ED020A6C
:10184000A6E74BE025E0FFE75548103090ED000A91
:101850005B48F8EEC00A90ED060A5B4807F06AF9AB
:101860009AED070AB1EE400A10EE100AFEF785FF66
:1018700053EC182BFEF782FEFEF792FF00EE100AE3
:101880005148D0ED140A803007F054F94D488038A3
:1018900072E796ED050AB8EEC00ADFED4C0A4C4837
:1018A00007F048F9DAF81800FEF767FF53EC182B39
:1018B000FEF764FEFEF774FF00EE100A4448D0ED18
:1018C000140A803007F036F94148803090ED140A50
:1018D000BDEEC00A10EE100AA08049E096ED050AA0
:1018E0009FED3A9A3A48B8EEC00AF0EE490A07F07E
:1018F00021F9DAF81800FEF740FF53EC182BFEF739
:101900003DFEFEF74DFF00EE100A3148D0ED140AFF
:10191000803007F00FF92E48F0EE490A803090ED44
:10192000140ABDEEC00A10EE100AA08095ED050A5B
:101930002848B8EEC00A07F0FDF8DAF81C00FEF7F8
:101940001CFF53EC182BFEF719FEFEF729FF00EEE3
:10195000100A2048D0ED140A803007F0EBF81A483E
:10196000803890ED140ABDEEC00A10EE100A6080B7
:10197000B8784FF00002012830D0B4F902100E48B8
:10198000FFF792FBB4F9042000211348FFF78CFB0A
:101990000121684607F08EF823E600000E010020C2
:1019A000C04900209C46002060460020FC530020D7
:1019B0006666666666A64C409C010020F04A0020E0
:1019C00098530020F04E0020F04D00200000000051
:1019D000F04B0020F04C0020740100200021024850
:1019E000FFF762FB0022CFE79C01002070B541F2B7
:1019F00088342DED028B4FF4FA559FED1E8A9FED32
:101A00001E0A2346B0EE481AF0EE480A2A46032181
:101A10001A4803F06FFF1948B0EE481AF0EE480A72
:101A20009FED170A23462A460321803003F062FF08
:101A30009FED158A9FED131A9FED140AF0EE480AE8
:101A40006B1041F658320321114803F053FFB0EEFA
:101A5000481AF0EE480ABDEC028B2A46BDE87040F9
:101A60000B4803219FED0B0A41F27073803003F0A5
:101A700041BF0000000000007B142E3EF05000200B
:101A80009A9939400AD7233C0AD7A33B6666A63FFA
:101A9000F05100203333B33F08B54FF4FA6007F03C
:101AA00002F807F0A5FF0090FFF7A0FF864D4FF06A
:101AB0000108864FDFF818B2DFF818A2864E874C6F
:101AC00085F807804FF00009032003F0EBFFFFF7D4
:101AD0002DFDBDEEC00A86ED0C0A6078012806D007
:101AE0004FF4FA70A061F863607970B902E040F2D7
:101AF000DC50F7E7B8EEC00AD4ED040A784930EEBE
:101B0000600A10EE100A884207DA05206871FFF7B4
:101B10000DFDBDEEC00A86ED0B0A207906F016FC1D
:101B200068790B281DD2DFE800F006263249596596
:101B30009A9A9A9A7900A078A0B184F8049000BF8C
:101B400096ED050AD4ED030A6248B8EEC00AF8EE35
:101B5000E00A06F0EFFF9AED140ABDEEC00A84ED2C
:101B6000020A7CE003F002FE84F804907069E060F1
:101B700084F80280E4E784F8048048F6FC70E060B2
:101B800096ED050AB8EEC00ADFED560A09E003201B
:101B900020715548E06096ED050AB8EEC00ADFED09
:101BA000530A4C4806F0C6FF9AED140ABDEEC00A6F
:101BB00084ED020A4846A070E07050E09BF80900EE
:101BC000012802D0022803D005E04FF4877001E01D
:101BD00041F21850A06084F80480EBE7FFF7A6FC00
:101BE000BDEEC00A424886ED0C0AA060484684F863
:101BF0000490E0E7A07820B184F8059084F8049080
:101C00009EE703F0B3FD84F804907069E06084F807
:101C10000280FFF78BFC84ED040A91E7E07898B12D
:101C200096ED0C0AD4ED050A3249B8EEC00A30EE42
:101C3000600A10EE100A88420FDD03F097FD85F868
:101C4000078084F804900AE084F80490FFF76EFCA3
:101C500084ED050A84F8038001E02748A060B6F906
:101C60000000D4ED020A00EE100A1A48F8EEE00A6D
:101C7000B8EEC00A803006F05DFF1648803090ED67
:101C8000140ABDEEC00A10EE100A01B21B48FEF79E
:101C900029FFA879022804D06979022905D00128F2
:101CA0000AD06879012804D006E015488188C180EF
:101CB00002E01348818801816879A8710A21684689
:101CC00006F0F8FE00E700001601002000000140C9
:101CD0002E480020F0500020AC45002020010020BC
:101CE0000000C84200FC0F4770A6FEFF00C8ACC74A
:101CF0000CFEFFFF0000FA4418FCFFFF74010020F7
:101D0000F052002090F82020012A07D0022A05D0A6
:101D1000416A41F4802141620120704700684269B4
:101D20000A43426100207047F0B590F820500468E3
:101D3000A468012D05D0022D03D0416A41F4802111
:101D400053E014F0406F01D1E5004BD5C4F30164BA
:101D5000022C03D9416A41F4000146E00125A54067
:101D60001D608D684FF4C0739DB1CE6835434E68D9
:101D700045EAC605066803EB0417F5514FF4C27532
:101D8000076805EB04150E697E51097D012905D010
:101D900009E00E88CD6845EA4655EBE701684E59E3
:101DA00046F480764E511179D2F805504FF4C6763C
:101DB00041EA0525016806EB04168D511178D2F829
:101DC00001204FF4C47541EA0221026805EB0415B5
:101DD0005151006803EB0411425842F00102425095
:101DE0000020F0BD416A41F4001141620120F0BDC4
:101DF00010B590F82020012A07D0022A05D0416AA8
:101E000041F480214162012010BD3B48D0F80022FE
:101E100042F00102C0F80022D0F8002222F47C52E5
:101E2000C0F80022D0F800224B6A42EA0322C0F830
:101E300000220A7D02F01F0301229A40D0F81C32D2
:101E40009343C0F81C32CB69B3B9D0F80C3293433A
:101E5000C0F80C328C894B6864F31F434C6900EB6B
:101E6000C404C4F840320C890B6864F31F434C6906
:101E700000EBC404C4F84432CB69012B16D1D0F86E
:101E80000C321343C0F80C320C884B6864F31F43C8
:101E90004C6900EBC404C4F840320C89CB6864F38D
:101EA0001F434C6900EBC404C4F844328B69002B17
:101EB000D0F804320ED01343C0F804320B69002B63
:101EC000D0F8143208D01343C0F81432096A01293B
:101ED00004D008E09343EFE79343F5E7D0F81C12F2
:101EE0001143C0F81C12D0F8001221F00101C0F813
:101EF0000012002010BD000000640040704730B5A3
:101F000090F82040012C05D0022C03D0416A41F406
:101F100080215DE00468002955D02469A40754D0CD
:101F20004FF4D874056804EB01142D5915F004051D
:101F3000956005682D594ED0ED08556005682C59FF
:101F4000C4F34004D4604FF4DA74056804EB011460
:101F50002D5905F00F05156105682D59C5F30725A5
:101F6000956105682C59240C54614FF4DC720468A7
:101F700002EB0112A4581C700468A458240A5C7077
:101F80000468A458240C9C700468A258120EDA70DD
:101F90004FF4DE72046802EB0112A4581C7104684D
:101FA000A458240A5C710468A458240C9C71046829
:101FB000A258120EDA71006881B1016941F0200166
:101FC0000161002030BDE468A8E7416A41F40011D6
:101FD0004162012030BD6D0D1560AFE7C16841F071
:101FE0002001C160EDE72DE9F05F0546006800249F
:101FF0004669D0F804908768D0F80CB0D0F810A0EB
:10200000D0F81880F10748D0F90714D00121816079
:10201000B80703D5284600F0CCFA0CE0780702D5C3
:102020004FF4006407E0380702D54FF4805402E013
:10203000284600F0BDFAF80516D529684FF48070DF
:102040008860B80503D5284600F0B5FA0CE078059D
:1020500002D544F4005407E0380502D544F4804426
:1020600002E0284600F0A6FAF80316D529684FF4D6
:1020700080308860B80303D5284600F09EFA0CE053
:10208000780302D544F4004407E0380302D544F451
:10209000803402E0284600F08FFA300707D55FEA67
:1020A000CB6004D52968102044F40074C860700720
:1020B0004FF0080707D55FEA0B7004D52868C760A2
:1020C000284600F099F9B00706D52868C06880074F
:1020D00002D0284600F092F9700607D55FEACA6080
:1020E00004D52968102044F480640861B00607D53F
:1020F0005FEA0A7004D528680761284600F028FACC
:10210000F00606D528680069800702D0284600F04E
:1021100020FAB00308D55FEAC96005D52968102008
:102120004860284600F016FAF00307D55FEA097008
:1021300004D528684760284600F040FA300446D5A8
:102140005FEA497040D5F00504D55FEAC87001D058
:1021500044F00104B00504D55FEA887001D544F06D
:102160000204700504D55FEA487001D544F0040408
:10217000300529D518F0700F26D008F070004028DF
:1021800015D006DC102809D020280AD0302816D116
:102190000AE050280ED0602811D10EE044F0080467
:1021A0000DE044F010040AE044F0200407E044F09D
:1021B000400404E044F0800401E044F480742868A2
:1021C000816921F070018161296804204860002C38
:1021D00005D0686A204368622846FFF78FFEBDE895
:1021E000F09F70B5040003D094F8200010B104E013
:1021F000012070BD204600F081F82068016821F0C0
:102200000201016000F090FC0546052604E000F0A4
:102210008BFC401B0A2811D8206840688007F6D440
:102220002068016841F00101016000F07DFC054675
:102230000BE000F079FC401B0A2806D9606A40F4E4
:102240000030606284F82060D2E720684068C007F0
:10225000EFD0207E0128206801683DD021F0800168
:102260000160607E01282068016838D021F04001BB
:102270000160A07E01282068016833D021F0200190
:102280000160E07E0128206801682ED041F0100135
:102290000160207F01282068016829D021F0080111
:1022A0000160607F01282068016824D021F00401CA
:1022B0000160D4E902010843D4E904121143084340
:1022C0006168491E08432168C861002060620120DE
:1022D00084F82000002070BD41F08001C0E741F08B
:1022E0004001C5E741F02001CAE721F01001CFE726
:1022F00041F00801D4E741F00401D9E7F0B587B017
:10230000044614216846FEF787F8364B3648DFF856
:10231000D0E01968D4F800C0334A03250226092703
:1023200010300024491CF44522D11960012907D13D
:10233000016841F000710160006800F000700590D4
:10234000106840F0080010601068CDE9005600F0F9
:102350000800CDE9047069462448CDE9024500F043
:1023600005FB00220521142000F0FCFE142032E0C1
:10237000DFF87CE0F44530D1D0F800C04CF0806C40
:10238000C0F800C0D0F800C001290CF0806CCDF876
:1023900014C0196007D1016841F000710160006844
:1023A00000F000700590106840F0020010601068A6
:1023B00002AB00F0020005906020CDE9000683E842
:1023C000B00069460B4800F0D1FA002205214020F8
:1023D00000F0C8FE402000F0B7FE07B0F0BD0000DE
:1023E000006400400000002030380240000C024031
:1023F00000680040000402407047000070B54C497E
:102400000B2488422ED14B4B4B4A0021FFF777FD1E
:1024100049480068A0F50070033811D0032856D150
:10242000022003F02BFB4548816A4A1C82620A297C
:1024300002D840F6454148E084623E493F484BE0BF
:10244000032003F01BFB3E48816A4A1C82620A2972
:1024500001D838495BE08462BDE8704035493848AE
:1024600006F0A8B83749884231D1324B324A083396
:102470001C320021FFF743FD2F4840F202251C309B
:10248000332300683049A0F20222A84228D00DDC94
:10249000B0F5887F1BD0B0F5A87F43D0B0F5B07FF2
:1024A00015D1BDE870402748FEF789BD012A25D027
:1024B000032A0CD1012003F0E1FA2448816A4A1C66
:1024C00082620A2904D84FF461610181818170BD63
:1024D000184984621D480831BDE8704006F04CB8C8
:1024E000886A421C8A62322803D812491648083189
:1024F0000DE08B620F49144808310FE04A6E501C02
:10250000486611483C30322A05D80A490831BDE8EE
:10251000704006F06EB84B6606490831BDE8704061
:1025200006F00AB8BDE870400648FEF747BD000057
:102530007401002030000020440800206046002084
:10254000AC4500209C010020E84500209C4600206E
:10255000704770477047000070B5044690F820003F
:10256000012804D0606A40F40020606218E0022074
:1025700084F820002068016821F00101016000F06A
:10258000D3FA05460EE000BF00F0CEFA401B0A2841
:1025900008D9606A40F400306062052084F82000A9
:1025A000012070BD20684068C007EDD1606270BD39
:1025B000704770477047704770477047704700001A
:1025C0002DE9F84304464FF00009CDF80090634828
:1025D0004FF41651A56D0068B0FBF1F72E6894F822
:1025E0005C10082000FA01F131420FD021680A681E
:1025F00052070BD50A6822F004020A6094F85C10B6
:102600008840A860606D40F00100606594F85C103F
:102610004FF0010808FA01F0304208D021684969FA
:10262000090604D5A860606D40F00200606594F86A
:102630005C1004208840304208D02168096889076E
:1026400004D5A860606D40F00400606594F85C10EB
:1026500010208840304218D021680968090714D535
:10266000A86020680168490304D50068000308D504
:10267000A16C07E00168C90503D4016821F00801D5
:102680000160216C09B12046884794F85C10202035
:102690008840304231D021680968C9062DD5A8602C
:1026A00094F8350005282068016806D0490347D50D
:1026B000006800031DD4616C1CE021F0160101606C
:1026C0002068416921F080014161206C08B9A06C4B
:1026D00020B12068016821F00801016094F85C10C5
:1026E0003F208840A86084F8349084F83580216DBC
:1026F0001FE0E16B09B120468847606D00282BD0B0
:10270000606DC00714D0052084F83500206801688A
:1027100021F0010101600098401C0090B84203D8EC
:1027200020680068C007F6D184F8349084F83580BA
:10273000E16C002910D001B02046BDE8F043084705
:102740000168C905D5D4016821F01001016084F841
:10275000349084F83580CCE7BDE8F8834C00002045
:102760002DE9F041044600F0DFF906465CB1002592
:1027700084F83450022084F835002068016821F084
:10278000010101600DE00120BDE8F08100F0CCF90D
:10279000801B052805D920206065032084F83500BA
:1027A000F2E720680068C007F0D12268116820486D
:1027B0000140D4E901031843D4E9033633431843F5
:1027C00063691843A3691843E3691843236A1843EC
:1027D0000843616A042903D1D4E90B131943084360
:1027E000106020684069666A20F0070130460E4399
:1027F000012704280CD1A06A0643E06A40B12046B4
:10280000FEF7FEFD20B14020606584F83570BAE720
:10281000206846612046FEF7DFFD94F85C203F21EA
:1028200091408160656584F835700020ACE7000058
:102830003F8010F070B5044690F834000025012860
:102840000CD0012084F8340094F835600020012E6B
:1028500006D084F834000225284670BD022070BDE1
:10286000022684F8356060652046FEF7F3FD206897
:10287000016841F001010160EEE7000070B5044617
:1028800000F052F90546601C02D004480078044468
:1028900000F04AF9401BA042FAD370BD400000206E
:1028A00010B52349102818D020281DD0082827D07B
:1028B000012811D120481F49006806F087FE1D48F5
:1028C000001F4068002807D01C494FF08050086066
:1028D000BFF34F8FBFF36F8F10BD1948027842F0DE
:1028E00001020270174800E01748027842F0010226
:1028F000027008780028EFD0BDE8104005F07ABFDC
:102900001248017841F001010170017811F00101D4
:102910000170E1D0017821F001010170017841F0EE
:1029200002010170BDE81040094806F07DB80000C2
:1029300043010020280000202000002004ED00E0DA
:1029400041010020420100204001002065010020DB
:1029500024540020044910B50A68024202D00860DD
:10296000FFF79EFF10BD0000143C01402DE9F84F19
:10297000DFF87CB100224FF001084FF0030A4FF05E
:102980000F090BF1040E00BF0B6808FA02F4234094
:10299000A3426ED14D68022D01D0122D0ED1D50863
:1029A00000EB850CDCF820505607F70E09FA07F605
:1029B000B5430E69BE402E43CCF820600668550032
:1029C0000F790AFA05FC07F0030726EA0C06AF4068
:1029D000374307604E68012E05D0022E03D0112E1A
:1029E00001D0122E0ED18668CF6826EA0C06AF40C1
:1029F000374387604668A6430C79C4F300149440BB
:102A000034434460C6688C6826EA0C06AC40344304
:102A1000C4604C68E40065D5364C256845F48045B3
:102A20002560246822F0030504F480440094324CAD
:102A30002E19D6F8084895072F0F09FA07F5AC4369
:102A40002E4DA84201D1002524E02D4DA84201D1F0
:102A500001251FE02B4DA84201D102251AE02A4D85
:102A6000A84201D1032515E0284DA84202D1042532
:102A700010E037E0264DA84201D105250AE0254D9A
:102A8000A84201D1062505E0234DA84201D1072522
:102A900000E00825BD402543C6F80858DBF8004093
:102AA0005D464E689C43F60300D51C432C60DEF85F
:102AB000004075464E689C43B60300D51C432C600D
:102AC0000B4D08352C684E689C43F60200D51C431C
:102AD0002C60074D0C352C684E689C43B60200D51F
:102AE0001C432C60521C102AFFF44EAFBDE8F88F37
:102AF000003C0140443802400030014000000240E8
:102B00000004024000080240000C02400010024095
:102B10000014024000180240001C02400AB181610A
:102B200070470904FBE70000014880687047000017
:102B30004000002070B504001BD094F83D00002533
:102B400020B984F83C50204600F042FA242084F852
:102B50003D002068016821F00101016000F0F2FBF6
:102B60004D4A6168914201D84C4900E04C49884285
:102B700001D2012070BD4B492368B0FBF1F15E68C2
:102B800026F03F060E435E606368934206D94FF419
:102B9000967359434FF47A73B1FBF3F12368491CE0
:102BA0001E6A26F03F06314319626168914210D8CF
:102BB0004900401EB0FBF1F2521CC2F30B02042A82
:102BC00001D2042022E0B0FBF1F0401CC0F30B0066
:102BD0001CE0A368F3B301EBC10202EB0116421E35
:102BE000B2FBF6F2521C42F48042120549D093B374
:102BF00001EBC10202EB0111401EB0FBF1F0401CE1
:102C0000C0F30B0040F4804040F400402168CA69E2
:102C10004CF6FF739A431043C861D4E90701084397
:102C200021680A6822F0C00210430860D4E9030159
:102C300001432068826848F2FF339A431143816060
:102C4000D4E9050108432168CA6822F0FF02104355
:102C5000C86001E00EE016E02068016841F0010163
:102C600001602564202084F83D00256384F83E50EF
:102C7000002070BD01EB4106421EB2FBF6F2521C71
:102C8000B3E70120C2E701EB4101401EB0FBF1F0C8
:102C9000401CC0F30B00B7E7A086010080841E0033
:102CA00000093D0040420F002DE9FF4F83B09A46D6
:102CB000DDE9119793460446DDF84080FFF734FFC5
:102CC000054694F83D00202870D11923012271494E
:102CD0002046009501F052FC0028F5D194F83C0004
:102CE000012863D0012084F83C0020680168C907EE
:102CF00003D1016841F0010101602068016821F4FD
:102D000000610160222084F83D00402084F83E00EC
:102D100000262664C4F82480A4F82A90608D2085BB
:102D20005D48E062CDE9007553465A462046049955
:102D300001F041FB00287CD1208DD0B1012821D0A9
:102D40000228206824D0416980690090208D0328E2
:102D500069D801282BD0514902283B464FF0000288
:102D6000009559D08846204601F008FC002860D123
:102D70003CE02068416981690091016841F400717B
:102D8000016077E02068016821F480610160F0E76C
:102D9000016821F4806101602068016841F40061EC
:102DA0000160206841698069009063E06FE02A4615
:102DB0003946204601F061FC98BB20680069616AD1
:102DC00008704EE02068016841F4007101602068DD
:102DD0000069616A0870606A401C6062218D491E4A
:102DE0002185618D491E6185216838E02068016870
:102DF00021F48061016020680069616A0870606A7E
:102E0000401C6062208D401E2085608D401E6085C4
:102E10003B46002241460095204601F0AFFB00B939
:102E2000D0E706E0FFE72A463946204601F025FCB8
:102E300018B1012007B0BDE8F08F20680069616A11
:102E40000870606A401C6062218D491E2185618D79
:102E5000491E618521684A69D24352070AD409692B
:102E60000170606A401C6062208D401E2085608D6C
:102E7000401E6085208D00287FF468AF202084F8F4
:102E80003D0084F83E6084F83C600020D2E70220D8
:102E9000D0E70000020010000000FFFF0400010066
:102EA0002DE9FF4F83B09A46DDE91197934604461A
:102EB000DDF84080FFF738FE054694F83D002028F5
:102EC0007FD11923012240492046009501F056FB8D
:102ED000002876D194F83C00012872D0012084F8B3
:102EE0003C0020680168C90703D1016841F0010175
:102EF00001602068016821F400610160212084F8EC
:102F00003D00402084F83E0000262664C4F824805A
:102F1000A4F82A90608D20852C48E062CDE90075E8
:102F200053465A462046049901F0B8FA70B930E089
:102F30002A463946204601F0D3FB58B1206C0428BC
:102F400004D12068016841F400710160012007B0DC
:102F5000BDE8F08F606A216800780861606A401CF3
:102F60006062218D491E89B22185628D521E628563
:102F700022685369DB435B070BD469B100781061A9
:102F8000606A401C6062208D401E2085608D401E5E
:102F90006085208D0028CBD12A463946204601F095
:102FA000C7FA0028CAD154F83D0B016841F40071FA
:102FB0000160202004F81E09E67766770020C6E746
:102FC000FFE70220C3E70000020010000000FFFF3F
:102FD000F0B587B0044614216846FDF71DFA1A497A
:102FE000206888422DD11948016841F00401016030
:102FF000016801F004010591016841F001010160DF
:103000000068122400F0010005904FF400700125C3
:10301000032604278DE8F10069460D48FFF7A6FC5A
:1030200028028DE8F10069460A48FFF79FFC07482F
:103030001030016841F400010160006800F40000F4
:10304000059007B0F0BD0000005C00403038024041
:1030500000080240000002400248816802781144E2
:1030600081607047400000200B4810B5016841F4B2
:1030700000710160016841F480610160016841F400
:1030800080710160032000F08DF8002000F006F848
:1030900000F03EF8002010BD003C024010B5014693
:1030A00088B000221C2000F05DF81C2000F04CF8D5
:1030B00014480024016841F001010160006805A97D
:1030C00000F001000690684600F016F900F03AF9A9
:1030D0000D494000B0FBF1F10C484FF08042491E11
:1030E000026040F2E732C0E90324C0E9011400F0B5
:1030F00027FD10B1012008B010BD044800F09EFD6E
:10310000F9E700004038024040420F007C080020F0
:103110000C4882B0016841F480410160006800F40D
:10312000804000900748001F016841F08051016015
:103130000068002200F0805000900F21901E02B025
:1031400000F010B844380240002809DB00F01F02EC
:10315000012191404009800000F1E020C0F80011F9
:1031600070470000F0B40E4B1B680C46C3F30223FB
:10317000C3F10705042D00D90425191D072901D223
:10318000002300E0DB1E012606FA05F1491E21405E
:1031900099409E40761E16403143F0BC04F0D6BBE9
:1031A0000CED00E0064900F0070208684FF6FF0347
:1031B000184040EA0220034A1043086070470000AC
:1031C0000CED00E00000FA052DE9F0470E46050081
:1031D00065D0DFF81481D8F80000F7B200F00F00D6
:1031E000B04207D288F80070D8F8000000F00F0055
:1031F000B04254D128683D4C810712D5400703D511
:10320000206840F4E05020602878000703D520684B
:1032100040F4604020602068A96820F0F000084376
:1032200020602878C0072DD0304968680839012807
:1032300012D0022813D0032811D009688907002969
:103240002DDA216821F0030101432160FFF76CFCB6
:10325000814641F2883A0EE009688903EFE7096880
:103260008901ECE7FFF760FCA0EB0901514502D9A9
:103270000320BDE8F0872068696800F00C00B0EB1F
:10328000810FEFD1D8F80010404601F00F01B14294
:1032900007D90770006800F00F00B04201D001208C
:1032A000E7E72878400705D52068E96820F4E05072
:1032B000084320602878000706D52068296920F493
:1032C000604040EAC100206000F05CF82168084AD4
:1032D000C1F30311515CC840064908600020FFF7A4
:1032E000DDFE0020C5E70000003C02400838024037
:1032F000709C00084C0000200F2202600C4A1368EA
:1033000003F003034360136803F0F0038360136862
:1033100003F4E053C36012684FF4E05303EAD202AF
:1033200002610448006800F00F0008607047000068
:1033300008380240003C0240014800687047000025
:103340004C0000200448054900680968044AC1F39C
:103350008221515CC84070474C0000200838024070
:10336000809C00080448054900680968044AC1F3C4
:103370004231515CC84070474C0000200838024080
:10338000809C0008154810B5006810F00C02144825
:1033900013D01449042A0FD0082A0ED10F4C241F31
:1033A0002268236802F03F025B0207D52068C0F361
:1033B0008810A0FB010106E0084610BD2168C1F39A
:1033C0008811A1FB00010023FCF7DCFF2168C1F399
:1033D0000141491C4900B0FBF1F010BD0838024022
:1033E0000024F400001BB7002DE9F84F050076D04B
:1033F0002878DFF8F8B2BE4CC00749D0DBF80010DF
:103400005846C1F38101012908D00068C0F381004A
:1034100002280AD1201D0068400206D520688003DA
:1034200036D568680028E2D032E06868B0F5803FA1
:1034300010D0B0F5A02F206810D020F4803020608C
:10344000206820F4802020606868A0B1FFF76CFB42
:1034500006460CE0206840F48030F4E740F4802019
:103460002060F7E7FFF760FB801B642873D82068B3
:103470008003F7D50CE0FFF757FB064605E000BFD9
:10348000FFF752FB801B6428F0D820688003F7D434
:103490002878DFF8608280074FF000093ED5DBF81E
:1034A0000010584611F00C0F09D00068C0F38100DD
:1034B00002280BD18D48001F0068400206D4206806
:1034C000800715D5E868012809D111E0E868B8B18E
:1034D0000120C8F80000FFF727FB064605E002E1DF
:1034E000FFF722FB801B0228C0D820688007F7D591
:1034F0002068296920F0F80040EAC10020600DE052
:10350000C8F80090FFF710FB064604E0FFF70CFB3D
:10351000801B02281FD820688007F7D4287800076E
:1035200022D5724E744869696C3671B1012101600F
:10353000FFF7FAFA074604E0FFF7F6FAC01B022885
:1035400009D830688007F7D50EE0C0F80090FFF783
:10355000EBFA074605E083E0FFF7E6FAC01B022816
:103560007ED830688007F7D42878400768D5DFF820
:103570007CA100270AF1380ADAF80000C0000BD459
:10358000DAF8001041F08051CAF80010DAF80000B3
:10359000012700F080500090584E3068C00510D4CC
:1035A000306840F480703060FFF7BEFA009005E0AC
:1035B000FFF7BAFA0099401A022851D83068C005BE
:1035C000F6D54A4EA868683601280FD0052830681D
:1035D00010D020F001003060306820F0040030602E
:1035E000A868B8B1FFF7A0FA00900FE0306840F08B
:1035F0000100F4E740F004003060F7E7FFF794FAC9
:103600000099411A41F28830814264D830688007BD
:10361000F4D50EE0FFF788FA009007E0FFF784FA90
:103620000099411A41F28830814254D830688007AD
:10363000F4D42FB1DAF8001021F08051CAF800104C
:10364000A869C0B3DBF80010C1F3810102294AD098
:103650000228484607D0C8F86000FFF765FA00E086
:1036600039E005463AE04746C8F86000FFF75CFAE3
:10367000064604E0FFF758FA801B02282BD8206882
:103680008001F7D4D5E907010843A96A1C4A490813
:1036900002EB01416A6A41EA8211084395F82C1055
:1036A00040EA01611148001F016001203866FFF700
:1036B0003BFA054605E014E0FFF736FA401B022806
:1036C00009D820688001F7D50BE000BFFFF72CFA7E
:1036D000401B022802D90320BDE8F88F2068800132
:1036E000F4D40020F8E70120F6E700000838024093
:1036F0000038024000004742800E47420070004000
:103700000000FFFF70B5040005D00025A56294F805
:10371000510010B106E0012070BD84F850502046E1
:1037200000F030F8022084F851002068016821F090
:1037300040010160D4E901010843D4E903121143B7
:10374000084361690843218B01F400710843E16972
:103750000843216A0843A16A084321680860A069F8
:10376000042101EA1040616A08432168486020682A
:10377000C16921F40061C1616565012084F85100CF
:10378000002070BD2DE9F04186B006461421684640
:10379000FCF742FE35493068884264D13448002441
:1037A000016841F480510160006800F48050059088
:1037B0002F481438016841F002010160016801F0EE
:1037C00002010591016841F00101016000680225D4
:1037D00000F0010005901820CDE9000502AA03279A
:1037E0004FF0050882E8900169462248FFF7BEF8CD
:1037F0008020CDE9000502AA694682E890011E48B2
:10380000FFF7B4F81E4D1D487F062860C5E9017416
:103810004FF48068C5E903486C617812AC61C5E972
:10382000074028466C62FEF79BFF08B1FDF733FEA8
:10383000F564AE63124D114860351830E5E80207B3
:103840004020A5E81101C00245F81449AC61C5E962
:1038500007400B486C626030FEF782FF08B1FDF74D
:103860001AFEB564AE6306B0BDE8F08100300140D9
:10387000443802400004024000000240406402401C
:10388000C40400202DE9F84F044690F850000027AA
:103890000A9E1D4692468B464FF0010901280ED024
:1038A000012084F85000FFF73FF9804694F851005A
:1038B000616801280CD0B1F5827F07D102E00220B7
:1038C000BDE8F88FA16809B9042801D00227C2E039
:1038D000BBF1000F27D0BAF1000F24D01DB394F82C
:1038E0005100042802D0052084F8510000206065B2
:1038F000C4F838A0E587A587C4F830B0E586A5866A
:103900002064606420680168490603D4016841F0BE
:1039100040010160E068B0F5006F606805D0E8B371
:10392000012D46D07FE0012795E008B1012D39D166
:10393000206B21680088C860206B801C2063E08EAB
:10394000401EE0862EE02068816889070FD5E18E51
:1039500069B1B9F1010F0AD1216B0988C160206BEF
:10396000801C2063E08E401EE0864FF00009206836
:103970008168C9070CD0E18F51B1C068A16B088084
:10398000A06B801CA063E08F401EE0874FF0010910
:10399000FFF7CAF8A0EB0800B04200E009E001D34D
:1039A000701C50D1E08E0028CDD1E08F0028CAD104
:1039B0003FE0206B216800780873206B401C206377
:1039C000E08E401EE0862EE02068816889070FD5D2
:1039D000E18E69B1B9F1010F0AD1216B0978017348
:1039E000206B401C2063E08E401EE0864FF00009F3
:1039F00020688168C9070CD0E18F51B1C068A16B04
:103A00000870A06B401CA063E08F401EE0874FF061
:103A10000109FFF789F8A0EB0800B04202D3701C3F
:103A200001D010E07EB1E08E0028CDD1E08F0028DB
:103A3000CAD142463146204603F0BCFA28B10127DC
:103A40002020606507E0032705E0A06818B920681A
:103A5000C16880680090012084F85100002084F83B
:103A6000500038462CE74FF0E0210428086903D0C5
:103A700020F004000861704740F00400FAE710B538
:103A8000401EB0F1807F01D3012010BD4FF0E02433
:103A900060610F21601703F059FF0020A06107202B
:103AA0002061002010BD7047704710B590F83C2091
:103AB000012A22D0012280F83C20CA688C6822F4B6
:103AC000407222434C6822F4806222430C6822F444
:103AD000006222430C6922F4805222434C6922F492
:103AE00000522243C969002322F480420A4301683C
:103AF0004A6480F83C30002010BD022010BD70B533
:103B000090F83C20012A19D0012400F83C4F0222F1
:103B1000427050F83C3C5A689D6822F070060A6872
:103B20004968324325F0800529435A6050F83C2CFF
:103B30009160447000210170084670BD022070BD84
:103B400010B5040003D094F83D0010B107E0012047
:103B500010BD002084F83C00204600F00DF8022043
:103B600084F83D00211D206803F01AFB012084F831
:103B70003D00002010BD000008B5016829482A4A10
:103B8000814207D1106840F001001060106800F019
:103B900001002FE02448254B001F99420ED10168F7
:103BA00041F0020101600068002200F00200009074
:103BB00005211D20FFF7D6FA1D202EE01C4B99424F
:103BC0000ED1016841F0100101600068002200F090
:103BD0001000009005213620FFF7C4FA36201CE0C3
:103BE000144B994208D1106840F4003010601068FE
:103BF00000F40030009008BD0F4A9142FBD10168EB
:103C000041F0400101600068002200F04000009097
:103C100005212B20FFF7A6FA2B20BDE80840FFF76F
:103C200093BA000000000140443802400004004004
:103C30000010004000440140001800400168CA68BC
:103C400042F00102CA600068816801F0070106299C
:103C500003D0016841F0010101600020704770B598
:103C6000044690F83C00012817D0012584F83C5008
:103C7000022084F83D002068826822F0770222F456
:103C80007F4282600868502830D00DDC20284DD05B
:103C900005DC98B310283BD148E0022070BD3028E5
:103CA00044D0402834D139E0602828D0702806D08C
:103CB000B0F5805F2CD0B0F5005F29D10AE0CB6869
:103CC000D1E90121206803F0DCFA2068816841F025
:103CD000770109E0CB68D1E90121206803F0D1FA2E
:103CE0002068816841F48041816011E0CA684968B8
:103CF000206803F09BFB5021206807E016E0CA68AB
:103D00004968206803F0A3FB6021206803F0C3FA30
:103D100084F83D50002084F83C0070BDCA684968B2
:103D2000206803F083FB40212068EFE7226801460A
:103D30001046EBE7704770B50446006801694FF024
:103D40000005C943890715D4C168C943890711D43F
:103D5000E91E0161012020772068806980072046E4
:103D600002D0FFF7E7FF04E000F0E4F8204600F09F
:103D700066F9257720680169C943490717D4C168E6
:103D8000C943490713D46FF0040101610220207771
:103D90002068806910F4407F204602D0FFF7CAFFF8
:103DA00004E000F0C7F8204600F049F925772068C4
:103DB0000169C943090716D4C168C943090712D468
:103DC0006FF008010161042020772068C069800736
:103DD000204602D0FFF7AEFF04E000F0ABF820462B
:103DE00000F02DF9257720680169C943C90617D469
:103DF000C168C943C90613D46FF0100101610820DE
:103E000020772068C06910F4407F204602D0FFF779
:103E100091FF04E000F08EF8204600F010F92577BD
:103E200020680169C943C90708D1C168C943C907E6
:103E300004D1891E0161204600F024F9206801693F
:103E4000C943090609D4C168C943090605D46FF0FE
:103E5000800101612046FFF726FE20680169C94301
:103E6000490609D4C168C943490605D46FF0400129
:103E70000161204600F026F920680169C9438906DE
:103E80000BD4C168C943890607D46FF020010161D2
:103E90002046BDE87040FFF707BE70BD10B586B084
:103EA000044614216846FCF7B7FA23681C4C00212D
:103EB0001C480222A3421AD1036843F001030360A5
:103EC000036803F001030593036843F010030360E4
:103ED000006800F0100005904FF4D4400090CDE948
:103EE00001210120CDE9031069460F4813E00F4C72
:103EF000A34212D1036843F002030360006800F09C
:103F000002000590A0150090CDE901210320CDE924
:103F1000031069460648FEF729FD06B010BD0000F3
:103F200000000140303802400010024000440140CF
:103F300000040240704770B5044690F83C000D46FE
:103F400001280DD0012684F83C60022084F83D0051
:103F500042B1042A18D0082A2AD00C2A4DD139E0BF
:103F6000022070BD206803F09FF92068816941F04C
:103F7000080181612068816921F004018161206864
:103F800081692A69114311E0206803F0BDF92068B6
:103F9000816941F4006181612068816921F4806157
:103FA0008161206881692A6941EA0221816124E0F6
:103FB000206803F0DFF92068C16941F00801C161A0
:103FC0002068C16921F00401C1612068C1692A69C2
:103FD000114311E0206803F001FA2068C16941F43F
:103FE0000061C1612068C16921F48061C1612068FC
:103FF000C1692A6941EA0221C16184F83D6000205B
:1040000084F83C0070BD10B5040003D094F83D0066
:1040100010B107E0012010BD002084F83C002046CC
:1040200000F00CF8022084F83D00211D206803F008
:10403000B7F8012084F83D00002010BD704770479C
:1040400010B504460068012203F00EF90B49206800
:10405000884202D00A49884203D1416C41F40041B0
:1040600041642068816801F00701062903D00168D6
:1040700041F001010160002010BD0000000001407E
:10408000000401400168B1F1804F04D00A4A904217
:1040900003D101F0FFBCFEF7DFBF084881420AD11F
:1040A000074801680A6842F001020A600068C168B6
:1040B00041F00101C160704704060020000001408A
:1040C00084050020704770B5040004D094F83900CE
:1040D000002510B106E0012070BD84F8385020465C
:1040E00000F022F8242084F839002068C16821F407
:1040F0000051C160204603F0BDF92068016921F438
:10410000904101612068416921F02A0141612068E4
:10411000C16841F40051C160E563202084F8390092
:1041200084F83A00002070BD2DE9F04F87B00546B5
:1041300014216846FCF770F95A48594B2A68002444
:1041400058491438022601274FF003084FF0070999
:104150009A4228D10A6842F010020A60096801F008
:1041600010010591016841F002010160016801F050
:1041700002010591016841F0010101600068694692
:1041800000F00100059080208DE8C1034648FEF74D
:10419000EDFB30028DE8C10369464448FEF7E6FBBB
:1041A00007B0BDE8F08F424B4FF4806A4FF4003BFC
:1041B0009A4236D13B49091F0A6842F480220A60BC
:1041C000096801F480210591016841F00401016052
:1041D0000068694600F0040005904FF440608DE8E7
:1041E000C1033448FEF7C2FB344E334830604FF011
:1041F0000060C6E90104C6E9034A7461B461C6E916
:10420000074B30467462FEF7ABFA08B1FDF743F98D
:104210006E63002205212720B563FEF7A3FF272048
:104220003AE0274B9A42BBD10A6842F020020A606A
:10423000096801F020010591016841F04001016029
:104240000068694600F0400005904FF484408DE816
:10425000C101082004901B48FEF788FB174E1A483E
:10426000603630608005C6E90104C6E9034A4FF4B0
:1042700080707461C6E90640C6E908B43046FEF7AE
:104280006FFA08B1FDF707F96E6300220521472098
:10429000B563FEF767FF4720FEF756FF80E7000093
:1042A0000010014044380240000402400000024077
:1042B00000480040000802402860024084070020B7
:1042C0000014014000180240286402402DE9F84320
:1042D000044690F839001F4616460D46202850D156
:1042E000A5B19EB194F8380001284AD0012084F885
:1042F00038004FF00008C4F83C80212084F83900D1
:10430000FEF712FCA6848146E68426E00120BDE883
:10431000F883E08C401EE084A0684B46B0F5805FD7
:104320004FF000024FF080012046009703D003F0C9
:10433000F7F9E8B90DE003F0F3F9C8B92888216866
:10434000C0F308004860206908B16D1C05E0AD1C91
:1043500003E0216815F8010B4860E08C0028D8D1F3
:104360004B46002240212046009703F0D9F908B1BE
:104370000320CCE7202084F8390084F8388000201E
:10438000C5E70220C3E7FEE701684A69D243520548
:104390000FD46FF480624A61002140F8301F202260
:1043A00042738173026942F00402026101730120C9
:1043B0007047002070472DE9F84F04460068894691
:1043C0000B9D01689846174641F4806101602068A2
:1043D000016841F48071016000954FF0011A0022DC
:1043E000514620460A9B00F0C9F8002853D12168A5
:1043F00009F0FE0008610AF1010B2B4659462046E0
:104400000A9A00F0EFF8F0BB2068416980690090DB
:104410002A4620460A9900F063F940B1206C04282E
:1044200039D12068016841F40071016033E0FEB2C7
:10443000B8F1010F09D02168380A08612A462046E0
:104440000A9900F04DF90028E8D1206806612A4653
:1044500020460A9900F044F90028DFD1206801685D
:1044600041F48071016000950022514620460A9B6C
:1044700000F084F838B9216809F0FF0040F001002D
:1044800008612B4600E006E0594620460A9A00F0F3
:10449000A9F8002800D00120BDE8F88F2DE9F843E5
:1044A000044600680D46DDE90897016898461646FF
:1044B00041F4807101604B4600224FF0011120460B
:1044C000009700F05BF8E0B9216805F0FE00086194
:1044D0003B464A461549204600F084F888B92068D2
:1044E0004169806900903A464946204600F0F8F854
:1044F00050B1206C042804D12068016841F4007197
:1045000001600120BDE8F883F5B2B8F1010F09D0D0
:104510002168300A08613A464946204600F0E0F832
:104520000028E6D1206805610020EBE702000100C9
:1045300070B516460D4604460DE02046FFF724FFF1
:1045400008B1012070BD681C05D0FEF7EDFA801B94
:10455000A84207D835B120684069C0434007ECD471
:10456000002070BD002044F8300F20216173A0733B
:10457000216941F0200121612073E2E72DE9F04734
:104580001E4690460D460446C1F30747DDF82090CD
:1045900008E0701C06D0FEF7C7FAA0EB0900B04295
:1045A0000FD876B12068012F18D0806925EA000065
:1045B0000004000C14D000214145EAD00020BDE8E1
:1045C000F087002044F8300F20216173A073216927
:1045D00041F02001216120730120F0E74069E5E707
:1045E0000121E9E72DE9F0479A4691460E46044637
:1045F00000254FF02008C1F3074725E020684069F7
:10460000C043400514D42068016841F40071016082
:1046100021686FF480604861256384F83D8084F8E8
:104620003E50206C40F00400206484F83C501FE0B1
:10463000B9F1FF3F08D0FEF777FAA0EB0A01494530
:104640000CD8B9F1000F09D02068012F13D0806970
:1046500026EA00000004000C0BD0CFE744F8305FDE
:1046600084F80D80A573206940F020002061257337
:104670000120BDE8F0874069EAE72DE9F041002517
:1046800090460E460446202717E04069C043C00606
:104690000CD454F8301B6FF01000486144F81059E6
:1046A0006777A577206A2062257717E0FEF73CFA46
:1046B000A0EB0800B04208D83EB120684169C94368
:1046C0004906E2D40020BDE8F08144F8305F67730A
:1046D000A573206940F02000206125730120F2E7D6
:1046E00070B516460D4604460DE02046FFF74CFE19
:1046F00008B1012070BD681C05D0FEF715FA801BBB
:10470000A84207D835B120684069C0430006ECD400
:10471000002070BD002044F8300F20216173A07389
:10472000216941F0200121612073E2E72DED028B28
:10473000072000E0642004F0B6F9FCF787FA0028AF
:10474000F8D102E0642004F0AEF904F02DF900285D
:10475000F8D1614AA2F11006101D9346311D824620
:10476000FCF78CFA9FED5D1ADFED5D0A9FED5D0AA7
:1047700041F2301341F294120321A6F1E40001F05A
:10478000B9F806F124073A1D311DA6F12800FCF7FF
:104790008BF955491020C8610846FEF7B3FF08B1F0
:1047A000FCF779FE51490822A1F1080002F08AFBCA
:1047B0004E4D0120143DE870DFF81C814FF0FF39A9
:1047C000B7EE008AA8F174084946012004F070FD94
:1047D0000128F9D12878400708D5287820F004006E
:1047E000287042485146401CFCF700FA68784007A0
:1047F0000AD5687820F004006870374A311D1032FD
:10480000A2F12A00FCF7ACF9A878400708D5A878EF
:1048100020F00400A870354859460A38FCF708FB18
:104820002D483B1D321D51469FED310A3838FCF7AB
:104830004BF9294B203BA3F108042146221DA1F18D
:10484000100003F0F1FD94ED000A444688ED010AE2
:1048500098F83900411C88F83910052830D906200D
:1048600084F83900D4ED020A224970EE600A10EE95
:10487000900AC4ED000A884204D9D4ED050A70EE0E
:10488000880A08E010EE900A1B49884205DDD4ED45
:10489000050A70EEC80AC4ED050A94ED051ADFEDAD
:1048A000171AF0EE400A41EE210A94ED041A70EE58
:1048B000C10A9FED131A60EE810AC4ED060A01E0F9
:1048C00084ED040A84ED020A01201C34FDF7D6FFB2
:1048D000607F401C607777E70C54002000000000E8
:1048E000CDCC4C3E0000C8446C0400205401002094
:1048F0006F12833A000034C3000034430000B44315
:10490000000073C2F7EE001A71EEC11A21EE800AA0
:1049100000EE810A704700000F4810B50D49016094
:104920000621416000214FF480328160C0E903120A
:104930004FF440124261017641768176C17601776B
:104940004177FDF74EFC002803D0BDE81040FCF78E
:10495000A2BD10BD00640040740100200F4810B5D6
:104960000D4901600621416000214FF480328160D1
:10497000C0E903124FF4401242610176417681761C
:10498000C17601774177FDF72CFC002803D0BDE804
:104990001040FCF780BD10BD006800409C01002065
:1049A000194808B5016841F400110160016801F47B
:1049B00000110091016841F480010160006800224B
:1049C00000F48000009005210C20FEF7CBFB0C20AA
:1049D000FEF7BAFB002205213920FEF7C3FB392080
:1049E000FEF7B2FB002205213A20FEF7BBFB3A207E
:1049F000FEF7AAFB002205213B20FEF7B3FBBDE832
:104A000008403B20FEF7A0BB3038024010B5B8B0DC
:104A10001C222C496846FBF7E6FC0021684604F09E
:104A20005FF8294C27491C2220601C3107A8FBF79E
:104A3000DAFC002107A804F053F8224960601C2228
:104A400038310EA8FBF7CFFC00210EA804F048F87F
:104A50001C49A0601C22543115A8FBF7C4FC00219E
:104A600015A804F03DF8174960611C2270311CA89C
:104A7000FBF7B9FC00211CA804F032F81149E060F2
:104A80001C228C3123A8FBF7AEFC002123A804F0E4
:104A900027F80C49E0611C22A8312AA8FBF7A3FCE7
:104AA00000212AA804F01CF8064920611C22C43108
:104AB00031A8FBF798FC002131A804F011F8A0619F
:104AC00038B010BD889B0008040000202DE9F04F8D
:104AD00087B014216846FBF79FFC674800250168F2
:104AE00041F002010160016801F0020105910168D5
:104AF00041F040010160016801F040010591016849
:104B000041F001010160016801F0010105910168B6
:104B100041F008010160016801F008010591016898
:104B200041F004010160016801F004010591016890
:104B300041F020010160016801F020010591016848
:104B400041F080010160016801F080010591016878
:104B500041F0100101600068DFF820B100F01000A2
:104B60004FF480760590002231465846FDF7D6FF77
:104B7000DFF80C81012240214046FDF7CFFFDFF82E
:104B800004914FF4E057002239464846FDF7C6FF2E
:104B9000DFF8F4A0012210215046FDF7BFFF0122EB
:104BA00011463A48FDF7BAFF0320CDE9000501247C
:104BB000694602943648FDF7D9FE0096CDE90145D5
:104BC000694658460395FDF7D1FE4020CDE9000423
:104BD0000294694640460394FDF7C8FE0097CDE96C
:104BE0000145694648460395FDF7C0FE294D092059
:104BF000CDE90005694602944046FDF7B7FE102056
:104C0000CDE900040226CDE9024669465046FDF78B
:104C1000ADFE3020CDE90005694602945846FDF707
:104C2000A5FECDE902460094694618480194FDF7B7
:104C30009DFE062100220846FEF794FA0620FEF7A4
:104C400083FA00220A210920FEF78CFA0920FEF7D8
:104C50007BFA002205210A20FEF784FA0A20FEF7DB
:104C600073FA002205211720FEF77CFA1720FEF7C1
:104C70006BFA07B0BDE8F08F303802400008024000
:104C800000180240001C02400000024000040240E4
:104C900000140240000021100D4810B50B490160BE
:104CA0000C49416000214FF480428160C0E9031249
:104CB00041618161C1610162FDF73CFF002803D0C1
:104CC000BDE81040FCF7E7BB10BD0000005C0040F1
:104CD00018040020801A0600104810B50E49016023
:104CE0004FF482714160002102228160C0E9031209
:104CF00001224261520282613822C0E907214162E9
:104D000081620A21C162FEF7FDFC002803D0BDE8E4
:104D10001040FCF7C0BB10BD003001406C04002007
:104D200010B588B01C216846FBF776FB1448134980
:104D30000024C0E9001441F28731C0E90241046156
:104D40008461FEF7FDFE08B1FCF7A5FB0C48FFF7F8
:104D50005AF908B1FCF79FFB6020CDE900040294EA
:104D60000022694606480494FFF7E5F808B1FCF70D
:104D700092FB0348FFF792F808B010BD00440140D1
:104D8000440600201FB500211048009101910291B6
:104D90000D4A039102605322C0E901210422C0E9B7
:104DA00003218161FEF7CCFE08B1FCF774FB4FF4E0
:104DB0008050009069460548FEF751FF002801D059
:104DC000FCF769FB1FBD00000018004084060020AE
:104DD00010B596B000240F9410941194129413946B
:104DE0001C2168461494FBF717FB202107A8FBF74A
:104DF00013FB354833490160A721C0E9011444F68B
:104E00001F61C0E903148021C0E90541FEF798FE47
:104E100008B1FCF740FB4FF480500F900FA92A48CF
:104E2000FEF71DFF08B1FCF736FB2748FFF7EBF84C
:104E300008B1FCF730FB139413A923481494FEF730
:104E40005EFE08B1FCF727FB6020CDE90004029468
:104E5000039404940594002269461B480694FFF7C6
:104E60006AF808B1FCF717FB042269461648FFF7F9
:104E700062F808B1FCF70FFB082269461248FFF7F9
:104E80005AF808B1FCF707FB0C2269460E48FFF7F9
:104E900052F808B1FCF7FFFA0794089409944FF40C
:104EA00000500A94CDE90B4007A907480E94FEF77D
:104EB000FCFD08B1FCF7EFFA0348FEF7EFFF16B070
:104EC00010BD0000000001408405002010B586B030
:104ED0000024164800940194029403940494124907
:104EE000059401605321C0E901143121C0E9031484
:104EF0008461FEF725FE08B1FCF7CDFA4FF480502F
:104F0000009069460948FEF7AAFE08B1FCF7C3FA0B
:104F1000049404A905480594FEF7F1FD002801D08A
:104F2000FCF7B9FA06B010BD00040040C40500202B
:104F30001CB500240F4800940D490194016040F213
:104F40004731C0E9011463218461C160FEF7F8FDB7
:104F500008B1FCF7A0FA0094694606480194FEF7F0
:104F6000CEFD08B1FCF797FA0248FEF767FE1CBDBC
:104F700000100040040600200C4810B50A490160EA
:104F80004FF4E1314160002181600C22C160C0E931
:104F900004128161C161FFF796F8002803D0BDE8D3
:104FA0001040FCF778BA10BD00100140C406002084
:104FB0000C4810B50A4901600B494160002181602D
:104FC0000C22C160C0E904128161C161FFF77BF866
:104FD000002803D0BDE81040FCF75DBA10BD00000A
:104FE0000048004004070020A08601000C4810B5CE
:104FF0000A4901604FF4E1314160002181600C22D7
:10500000C160C0E904128161C161FFF75CF800284A
:1050100003D0BDE81040FCF73EBA10BD00140140BB
:105020004407002010B504462DED108BF0EE43BA76
:10503000B0EE448AF5EEC0BAF0EE638AB0EE629A42
:10504000B0EE42BAB0EE61CAF0EE419AB0EE60AA9C
:10505000F0EE40AAF1EE10FA84B01CD1F5EEC08A51
:10506000F1EE10FA17D1B5EEC08AF1EE10FA12D1B6
:1050700004B0F0EE492AB0EE4B2AF0EE4C1AB0EE36
:10508000691AF0EE4A0AB0EE6A0ABDEC108BBDE870
:10509000104000F083B9B5EEC0CAF1EE10FA09D1A4
:1050A000B5EEC0BAF1EE10FA04D1B5EEC09AF1EE49
:1050B00010FA7CD02CEE0C0A0BEE0B0A09EE090A52
:1050C00003F014FC2CEE00FA6BEE00EA29EE00EA85
:1050D0002BEEAB0A08EEA80A08EE080A03F006FC5D
:1050E000D4ED001A2BEE809A68EE808A21EEA12A78
:1050F00028EE008AF0EE00FA8DED032A94ED030A03
:10510000D4ED020A94ED011A21EE802A60EEA0DAB5
:1051100021EE00CA60EE80BA20EE00BAB6EE000AB8
:1051200061EE202A30EE6D0A61EEA0CA21EE81DA2E
:1051300061EE011A30EE4B4A7CEE2C0AB6EE001AF4
:105140008DED024A24EE090A32EEC24A71EE611A6E
:105150008DED014A08EE840A31EECB1ACDED001A2E
:1051600008EE200A72EE820A60EE890A20EE2F0A0B
:1051700048EE810A3BEECD1A20EE000A48EE010A05
:1051800060EEAF0A00EEA00A10EE100AFBF7F5FA87
:1051900041EC100B02F0A8FD51EC100BFBF700FBEB
:1051A0003CEE6C0A00EE900A20EE091A00E08EE058
:1051B0007BEE8D1A9DED032A9DED024A734808EEA1
:1051C000A11ADDED001A31EEED3AF6EE001A72EE9C
:1051D000611A08EE031A71EE8B3A64EE201A9DED07
:1051E000014A61EE2F2A3DEE2B1A24EE202A3CEED6
:1051F0008C4A42EE801A02EE812A64EE200A42EEC8
:10520000830A6EEEA32A4EEE412A28EEA03A2FEE34
:10521000011A08EE423A0EEEC01A72EE832A2EEE02
:10522000003A29EE020A0FEE633A68EE213A08EEE0
:10523000E10A49EE603A31EE000A90ED011A73EE90
:10524000230AB5EEC01AF1EE10FA2CDD90ED011A2A
:10525000D0ED021A21EE222A9FED4D1A42EE011ADC
:10526000C0ED021AD0ED011A21EEA02AD0ED031AEA
:1052700042EE011AC0ED031AD0ED011A21EE802A88
:10528000D0ED041A42EE011AC0ED041A90ED021A94
:105290007AEE81AA90ED031A3AEE01AA90ED041A73
:1052A00079EE819A07E09FED3B1A80ED021A80EDBE
:1052B000031A80ED041A90ED001A41EE22AA90ED37
:1052C000001A01EE20AAD0ED000A40EE809A9FED70
:1052D000320A94ED021A94ED033A6AEE801A2AEE2D
:1052E000002A69EE802A94ED010AD4ED000A60EEEE
:1052F000613A20EE824A41EE423A00EE624A43EEC3
:10530000623A03EE214A73EEA04A60EEA13A60EEE3
:10531000A20A34EE014AC4ED004A41EE223A40EEC0
:10532000020A43EE423A41EE610A73EE803A24EEFD
:10533000A40A70EE830AC4ED013A84ED024A03EE3A
:10534000A30AC4ED030A04EE040A00EEA00A03F067
:10535000CDFAD4ED000A60EE800AC4ED000AD4ED67
:10536000010A60EE800AC4ED010AD4ED020A60EE83
:10537000800AC4ED020AD4ED030A20EE800A84ED0F
:10538000030A04B0BDEC108B10BD0000F00000203B
:105390006F12833A000000006F12033A10B5044602
:1053A0002DED068BF0EE61AAF0EE629AF5EEC0AA42
:1053B000B0EE42AAB0EE418AF0EE608AB0EE409ABA
:1053C000F1EE10FA09D1B5EEC0AAF1EE10FA04D14F
:1053D000F5EEC09AF1EE10FA78D02AEEAA0A0AEE9B
:1053E0000A0A09EEA90A03F081FA2AEE804A6AEE57
:1053F000003A29EE803A94ED012A94ED030AD4EDA7
:10540000001AD4ED020A22EE001A21EE822A5E482A
:1054100001EEE01A00EE802AF6EE000A51EEA10A33
:1054200063EE011A40EE000A24EE020A03EEC10AFE
:1054300063EEA02A44EE601AD0ED010A43EE422A40
:10544000F5EEC00AF1EE10FA2CDDD0ED010A90ED78
:10545000021A20EEA22ADFED4D0A02EE201A80ED9C
:10546000021A90ED011A21EE212A90ED031A02EEA4
:10547000201A80ED031A90ED011A21EE002A90ED1A
:10548000041A02EE201A80ED041AD0ED020A39EE59
:10549000209AD0ED030A78EEA08AD0ED040A38EE07
:1054A000208A07E0DFED3A0AC0ED020AC0ED030AE8
:1054B000C0ED040AD0ED000A00EEA29AD0ED000A79
:1054C00040EEA18AD0ED000A00EE808A9FED310AFD
:1054D000D4ED000A94ED021A69EE001A28EE802A33
:1054E00068EE002A94ED010A20EEA14A94ED033AF9
:1054F00060EE613A01EE224A41EE423A03EE424A40
:1055000043EE623A74EE004A20EE824A73EEA03A0D
:1055100060EEA20A00EE624AC4ED003A40EE020AD2
:1055200023EEA30AC4ED014A03EE214A04EEA40AC5
:1055300041EE610A34EE014A70EE830A84ED024ABC
:1055400004EE040AC4ED030A00EEA00A03F0CEF94B
:10555000D4ED000A60EE800AC4ED000AD4ED010A21
:1055600060EE800AC4ED010AD4ED020A60EE800A02
:10557000C4ED020AD4ED030A20EE800A84ED030A8A
:10558000BDEC068B10BD0000F00000206F12833AC6
:10559000000000006F12033AFEE70000294C08B536
:1055A0000025A571A580658000F058F84FF47A6059
:1055B00003F079FA04F01CFA00902348234E254F9B
:1055C000808A3189DFF89080401A21494FF0FF39F5
:1055D000C8804946012003F06BFE01282DD1FBF75E
:1055E000CBFFF878012828D1B4F9021001F520701A
:1055F000B0F5A06F1FD8B4F9040000F5B472B2F58D
:10560000347F18D8A279012A02D0022A09D012E0E8
:10561000D8F80830591AC8F80810B168081AB060EC
:1056200009E0D8F80830591AC8F80810B168081A03
:10563000B060012078716580A5800A21684603F07A
:1056400039FAC6E7A648002060460020E04900205D
:105650000601002016010020C049002010B5B7EE59
:10566000000A2DED028B01239FED0E8A32220321C9
:10567000B0EE481AF0EE480A0B4800F03BF9B0EEE5
:10568000481AF0EE480ABDEC028B03210648BDE83B
:105690001040B6EE000A41F2883341F27072803059
:1056A00000F028B900000000C04800202DED048B58
:1056B00082B0642003F0F7F99FED228A04F098F994
:1056C00000909FED211ADFED210A9FED210A21486C
:1056D00003F076FD204D214E214F1E4C9FED219A67
:1056E0004FF00008F7EE008A3878012801D088B121
:1056F00012E02878012803D138EE288A85F8008046
:105700003078012803D138EE688A86F8008084ED6D
:10571000038A01E01448E060B0EE490A0D4803F046
:1057200027FDD4ED010ABCEEE01AFCEEE00A11EE12
:10573000101A10EE900AFBF7AFFE0A21684603F03C
:10574000B9F9D1E700409C44004083440080BB4449
:105750000AD7233C04530020060100200701002043
:105760002001002000007A440040834403480021C7
:10577000016102898281416170470000AC450020CF
:10578000F0B5514A514B5249508A4FF001048505FA
:1057900001D59C700C70850604D5850502D50225BF
:1057A0009D700D704B4DC60500D52C7087064FF0CF
:1057B000000602D5C70500D52E70157C012D07D136
:1057C0009D88022D01D94C719E809D886D1C9D8005
:1057D000557C0322012D00D14A71850403D50A703E
:1057E000820600D50C70C20401D506220A7082061A
:1057F00002D5C20400D50C70374A050500D51470D7
:10580000850603D5050504D5167001E0020500D50F
:105810001C70400500D55C702B480B78B0F90A204D
:10582000B0F90C102D48012B90ED000A06D0032B87
:1058300004D0062B02D0022B1CD036E0284BD3ED2F
:10584000000AB8EEE01A00EE902AF8EEE01ADFED5A
:10585000250A01EEA01ABDEEC11A83ED001AB8EEBA
:10586000C01A00EE101AB8EEC00A00EE601ABDEEC3
:10587000C10A18E01C4BD3ED000AB8EEE01A00EEA6
:10588000902AF8EEE00A71EE200AFDEEE00AC3ED80
:10589000000AF8EEC00A00EE101AB8EEC00A30EEA8
:1058A000C00ABDEEC00A80ED000A10EE101A11F514
:1058B000127F01DC0D4904E0B1F5DE7F02DB40F22E
:1058C000BB110160F0BD00002E4800200601002041
:1058D000160100202101002020010020E0490020C5
:1058E000D04900209A99993FC0490020B9FDFFFF97
:1058F0007047000030B4034C8467034CC46730BC6D
:1059000003F008BA158D0008238D00082DE9F04733
:10591000574F564E0025DFF85C91DFF85C817C68BC
:1059200097E0705DA5287DD174190521204603F00C
:1059300053FF002876D0B4F801102046093103F057
:105940002DFF00286ED0B4F80500A0F500710139D4
:105950001DD1E17989F80010217A89F80110B4F895
:105960000910A9F80210B4F80B10A9F80410B4F843
:105970000D10A9F80810B4F80F10A9F80C10B4F81D
:105980001110A9F80A10B4F81310A9F80E10B4F801
:105990000500A0F50071023917D1B4F81110A9F86B
:1059A0001010B4F81310A9F81210B4F80910A9F8DF
:1059B0003610D4F80B10C9F83810B4F80F10A9F845
:1059C0003C10B4F80710A9F83410B4F80500A0F59D
:1059D000007103390FD1D4F80710C9F82410D4F896
:1059E0000B10C9F82810D4F80F10C9F82C10D4F8EF
:1059F0001310C9F83010B4F80500B0F5017F02D1DA
:105A0000E17989F80710B4F80500A0F500710739AD
:105A100019D1E07901280CD199ED060A89ED080A1F
:105A2000217A00E013E089F81410D4F80910C9F8BD
:105A30001810E079022806D1217A89F81510D4F8D7
:105A40000910C9F81C10607809352844C5B26D1CCE
:105A5000EDB2B8F800008542FFF463AF7C60BDE8AA
:105A6000F04764210148FAF7D7BC00004248002003
:105A7000DC000020984700200401002010B50446F7
:105A8000FBF754FD024800EB840080ED000A10BDD6
:105A9000EC47002002488168491C81607047000083
:105AA000D847002010B50446FBF740FD024800EB44
:105AB000840080ED000A10BD04480020F0B52448A1
:105AC000264A002190F809C08388C088214CC0F57F
:105AD000806E0A26142720481568A3F58063BCF160
