:020000040800F2
:10000000485100205D020008913B0008AD33000814
:1000100025390008970C00081D4800080000000062
:100020000000000000000000000000009D0100082A
:10003000CD12000800000000F9010008713E000820
:1000400077020008770200087702000877020008AC
:10005000770200087702000877020008770200089C
:10006000770200087702000877020008770200088C
:10007000770200087702000877020008770200087C
:1000800011120008770200087702000877020008C2
:10009000990C000877020008770200087702000830
:1000A000770200088D3F00087702000877020008F9
:1000B00077020008993F0008A53F00087702000872
:1000C000770200087702000877020008770200082C
:1000D00077020008C94500081947000877020008A0
:1000E000770200087702000877020008770200080C
:1000F000B13F000877020008770200087702000885
:1001000077020008770200087702000877020008EB
:1001100077020008770200087702000877020008DB
:1001200077020008770200081D1200087702000815
:1001300077020008770200087702000877020008BB
:10014000A50C000877020008770200087702000873
:10015000770200087702000877020008770200089B
:10016000770200087702000877020008770200088B
:1001700077020008770200087702000800000000FC
:100180007702000877020008DFF80CD000F002FCCC
:10019000004800477B490008485100202C4B196853
:1001A0000868B0E8F04F80F30988BFF36F8F4FF015
:1001B000000080F3118870470000000008480068C4
:1001C000006880F308884FF0000080F3148862B65E
:1001D00061B6BFF34F8FBFF36F8F00DF00BF00BF6B
:1001E00008ED00E0DFF80C00016841F470010160E7
:1001F000704700BF88ED00E0EFF30980BFF36F8F19
:10020000134B1A681EF0100F08BF20ED108A20E96A
:10021000F04F106009B44FF0500080F31188BFF325
:100220004F8FBFF36F8F05F073FC4FF0000080F32A
:10023000118809BC19680868B0E8F04F1EF0100F6B
:1002400008BFB0EC108A80F30988BFF36F8F704746
:1002500038000020EFF30580704700000648804713
:1002600006480047FEE7FEE7FEE7FEE7FEE7FEE79B
:10027000FEE7FEE7FEE7FEE71D3F000889010008F4
:10028000DFED3C0A20EE200AFDEEC00AB5EEC00A02
:1002900010EE902AF1EE10FA38BF521E00EE902AAE
:1002A000DFF8D8C0B0EE084AF8EEE00A30EE600A97
:1002B000DFED310A60EE200ABCEEE00A10EE102AF3
:1002C000C2F3080200EE102A02F180030CEB820256
:1002D000B8EE400AC3F308030CEB830330EEC00A08
:1002E000D2ED000A93ED002A93ED011AF1EE601AA7
:1002F000D2ED010A71EE422AF1EE603ADFED200AFA
:1003000031EEA31A21EE203AB0EE001A41EE213A66
:1003100001EE623A62EE842A43EEE02A40EE032ABE
:1003200060EE222A41EEA02A00EE222A81ED002A68
:10033000D3ED001A93ED013AD2ED002A92ED012A95
:1003400071EE833A01EE213A32EE622A63EEA03A70
:1003500041EE423A22EE042A03EE602A00EE232AFE
:1003600020EE021A01EEA01A40EE012AC0ED002A8A
:1003700070470000610B363B0000004448630008F2
:10038000DB0F493C2DE9F05F0546002092469B4675
:1003900088460646814640241BE02846414647469B
:1003A000224600F040FA53465A46C01A914110D3F3
:1003B00011461846224600F027FA2D1A67EB01086D
:1003C0004F4622460120002100F01EFA17EB0009DB
:1003D0004E41201EA4F10104DFDC484631462A4686
:1003E0004346BDE8F09F40EA01039B0703D009E0C4
:1003F00008C9121F08C0042AFAD203E011F8013B11
:1004000000F8013B521EF9D27047D2B201E000F869
:10041000012B491EFBD270470022F6E710B51346A8
:100420000A4604461946FFF7F0FF204610BD2DE9A5
:10043000FE4F804681EA0300C00F0C46009021F079
:10044000004123F00045B8EB0200A94105D2404627
:10045000214690461C460B46024623F000401043BE
:1004600047D0270DC7F30A00C3F30A510290401A80
:10047000019040286BDAC3F3130040F4801B00980E
:10048000924620B10023D2EB030A63EB0B0B0198D9
:100490005946C0F14002504600F0B6F906460D46F6
:1004A00050465946019A00F0CEF910EB0800614120
:1004B000002487EA115284EAE7731A4340D0009A75
:1004C00062B3019A012A4FEA075215DC001B61EB67
:1004D00002014FF0004202EA0752CDE90042001C3F
:1004E00041F5801132462B4600F005FA03B0BDE815
:1004F000F08F40462146F9E7001B61EB0201001C2A
:1005000041F5801300185B412018A2F5001747EB56
:10051000030140EAD570B6196D4111E06D084FEA4C
:10052000360645EAC0754FEA0752001B61EB02012F
:10053000001C41F5801149084FEA30000019514173
:1005400032462B4603B0BDE8F04F00F0C5B9009825
:10055000012240000023D0EB020263EBE07300981D
:1005600021464FEAE074B8EB000061EB0401E9E7D3
:1005700083F000435BE781F0004158E72DE9FE4F2F
:1005800081EA030404F0004421F0004100944FF09C
:10059000000B23F0004350EA01045ED052EA03044A
:1005A0005BD0C3F30A54C1F30A552C44A4F2F334CC
:1005B0000194A0FB0254C1F3130141F48011C3F371
:1005C000130343F4801301FB024400FB034E840A2F
:1005D000970A44EA815447EA8357A4FB07680295C7
:1005E0008D0A05FB07854FEA932C04FB0C54270565
:1005F000029D4FEA065847EA1637B5EB08056EEB41
:10060000070C870E920E47EA811742EA8312A7FB76
:100610000201B6EB0B0164EB00042B0D43EA0C3333
:100620005E1844EB1C50DA465146E7FB0201C5F365
:1006300013044FEA0B3343EA14534FEA0432019C8C
:1006400043EA0603A4F10C040294009CCDE900B433
:1006500000F051F903B0BDE8F08F00200146F9E742
:100660002DE9F04D81EA030404F0004B21F0004530
:1006700014464FF0000A23F0004150EA050220D052
:1006800054EA01021DD0C5F30A570246C5F313030D
:10069000C1F31300C1F30A5640F4801543F48013EC
:1006A000A7EB0608101BD64608F2FD3873EB0500D1
:1006B00002D308F1010801E092185B41B8F1000F84
:1006C00003DA00200146BDE8F08D00204FF48011D0
:1006D000064684460EE0171B73EB050705D3121B75
:1006E00063EB050306434CEA010C49084FEA30006E
:1006F00092185B4150EA0107EDD152EA030012D093
:1007000082EA040083EA0501084305D0101BAB41CF
:1007100006D20122002306E000224FF0004302E04F
:100720006FF0010253101AEB06004CEB085110EB6E
:100730000A0041EB0B01BDE8F04D00F0CDB80EB55D
:10074000C10F80EAE0700844CA07002140F2334339
:100750008DE80E000A460B4600F0CDF803B000BD50
:100760000EB540F2334102910021CDE900110A4655
:100770000B4600F0C0F803B000BD00F0004230F0BE
:1007800000400AD0C10D01F56071C0F3160042EAC5
:100790000151C208400711437047002001467047CD
:1007A00030B5041E71F1000404DB4FF000444042F8
:1007B00064EB0101141E73F1000405DB1C464FF0CD
:1007C0000043524263EB04038B4208BF824230BDB8
:1007D00001F0004330B421F0004150EA010206D09C
:1007E0000A0DA2F56072C1F31301002A02DC30BCCD
:1007F00000207047440F44EAC104C100E01830BC37
:1008000000EBC25000F031B8202A04DB203A00FA95
:1008100002F1002070479140C2F1200320FA03F357
:10082000194390407047202A04DB203A21FA02F055
:100830000021704721FA02F3D040C2F1200291401A
:10084000084319467047202A06DBCB17203A41FAA5
:1008500002F043EAE07306E041FA02F3D040C2F14D
:10086000200291400843194670470029A8BF7047ED
:10087000401C490008BF20F00100704710B4B0FAD6
:1008800080FC00FA0CF050EA010404BF10BC704771
:1008900049B1CCF1200421FA04F411FA0CF118BF8B
:1008A000012121430843A3EB0C01CB1D4FEA00615A
:1008B0004FEA102042BF002010BC704700EBC3502D
:1008C00010440029A4BF10BC7047401C490008BF59
:1008D00020F0010010BC704710B5141E73F1000425
:1008E00008DA401C41F1000192185B411A4301D122
:1008F00020F0010010BD2DE9F04D92469B4611B14C
:10090000B1FA81F202E0B0FA80F220329046FFF7AD
:100910007BFF04460F4640EA0A0041EA0B015346BA
:100920005A46084313D0114653EA010019D0C8F1C2
:1009300040025046FFF777FF05460E46504659469F
:100940004246FFF761FF084305D0012004E020463E
:100950003946BDE8F08D0020054346EAE0762C4399
:1009600037430A986305E40AA0EB08000022FD0A59
:1009700044EA47540A3002D500200146E9E7010560
:1009800010196941DDE9084500196941BDE8F04DDC
:10099000A2E70000064C074D06E0E06840F00103C6
:1009A00094E8070098471034AC42F6D3FFF7F0FB09
:1009B000806B0008A06B0008D0ED000AF4EEC00ABE
:1009C000F1EE10FA01DD80ED000AD0ED000AB1EE83
:1009D000400AF4EEC00AF1EE10FA01D280ED000AEE
:1009E000704710B50146806B026C12F0500F05D0B5
:1009F000026CD20626D500F039FD10BD016C41F421
:100A00000071016401688A6812F0405F17D1027EAC
:100A1000AAB9CA6A12F4700F02D08A6852050ED4BD
:100A20004A6822F020024A60016C21F4807101645E
:100A3000016CC90403D4016C41F00101016400F0B0
:100A400013FD10BD806BC26CBDE810400846104716
:100A500010B5806B40210164416C41F00401416498
:100A600000F004FD10BD10B5806B00F0FEFC10BD61
:100A7000464910B54A6822F440324A604A684368E1
:100A80001A434A6001684A6822F480724A60016829
:100A90004A68036942EA03224A6001684A6822F010
:100AA00040724A6001684A6883681A434A60016874
:100AB0008A6822F400628A6001688A68C3681A43FF
:100AC0008A60816A6FF07062D14201688A6822F0A0
:100AD00070628A6001688A680CD0836A1A438A60EF
:100AE00001688A6822F040528A6001688A68C36A95
:100AF0001A4301E022F040528A6001688A6822F0BD
:100B000002028A6001688A68037E42EA43028A60C0
:100B100090F82010002901684A680FD042F4006262
:100B20004A6001684A6822F460424A6001684A6883
:100B3000174C436A04EB43331A4301E022F400628A
:100B40004A600168CA6A22F47002CA620168CA6A0D
:100B5000838B104C04EB03531A43CA6201688A6802
:100B600022F400728A6001688A6890F8303042EAA4
:100B700043228A6001688A6822F480628A60016880
:100B80008A68406942EA8020886010BD00230140E5
:100B900000E0FFFF0000F0FF0C494A42884202DA01
:100BA00000F50050FAE7904202DDA0F50050F5E7AD
:100BB00000EE100ADFED060AB8EEC00A20EE200AA9
:100BC000DFED040A20EE200A7047000000F0FFFF6E
:100BD0000000B4430000003910B502F01DFD02F022
:100BE000C1FC02F0E5FB02F015FC02F045FC02F04E
:100BF00075FC02F095FC02F0B9FD02F0EDFD02F08B
:100C000099FD02F01FFE02F039FE02F053FE02F0E1
:100C10006DFE134800F078F8124800F075F810489F
:100C200001F096F90F4801F093F903F0A1F964225D
:100C30000D490E4800F024F80C220D490D4800F033
:100C40001FF80221064800F055FD0221054800F07A
:100C500051FDBDE810400A220749084800F0B2BC27
:100C60003C02002064020020A0470020E005002094
:100C700004470020A0050020D80700200401002020
:100C800010B5044602F0E6FA2068C16841F0100190
:100C9000C160002010BDFEE7014800F09CBE0000CE
:100CA0003C020020014800F096BE000064020020D3
:100CB00001884ABA06490A81428852BA12B24A6188
:100CC000044902790A7042794A708079C870704785
:100CD000E0450020C600002001884ABA06494A8241
:100CE000428852BA0A80828852BA4A8082790A724D
:100CF000C0794872704700001C460020014A5070BD
:100D0000917070479C00002000B58BB0002101223B
:100D1000CDE90612039108920E22094B049100912D
:100D2000019102910992984200D10591044928311C
:100D3000884200D10592694600F052FD0BB000BD1B
:100D40003C0200202DED028B84B0C82003F03FFE52
:100D500005F056F8039000F0BFF9BD4FBD4E9FED72
:100D6000BE8ADFF8F882DFF8F8B2B51F08F1100A82
:100D700008F1A00978783070072837D2DFE800F052
:100D80003604B9CCFDFDFB00B6480089C0F56160B2
:100D9000A860FFF701FFB5EEC00A85ED040AF1EE89
:100DA00010FA02DDF0EE400A01E0F1EE400A10EE2A
:100DB000900AAD49884201DA002009E0A748F0EE28
:100DC000480A803803F056FEBDEEC00A10EE100A45
:100DD000288000B201EE100AD8ED000A98ED010A51
:100DE000B8EEC11A9D48103003F0DCFD5FF000043E
:100DF0000AEB8400C4EB0411D0ED000A3BF921009A
:100E000000EE100A09EBC410B8EEC00A03F032FE7F
:100E1000641C042CECDBD9ED140A4C46F5EEC00A38
:100E2000F1EE10FA01DCF1EE600A94ED340AB5EE51
:100E3000C00AF1EE10FA01DCB1EE400A70EE800A51
:100E400094ED540AB5EEC00AF1EE10FA01DCB1EEF1
:100E5000400A70EE800A94ED740AB5EEC00AF1EE15
:100E600010FA01DCB1EE400A804830EE800A814978
:100E700080ED000A0A8E7E4800EE102AD0ED020AAC
:100E8000B8EE400A60EE801AD0EC020A088F91EDAD
:100E90000D0A04F053F9322003F099FD0F230822C4
:100EA0007549764802F024FA94ED740ABDEEC00A42
:100EB00010EE100A00B2009094ED540ABDEEC00A84
:100EC00010EE100A94ED340A03B2BDEEC00A10EE23
:100ED000100A94ED140A02B2BDEEC00A10EE100A18
:100EE00001B2674800F0D0F80A2103A803F076FDAC
:100EF00040E798ED020ABDEEC00A10EE101A09B2E2
:100F0000298000EE901AD8ED001A98ED010AB8EE8B
:100F1000E01AF0EE610A65E75A480078012802D02D
:100F2000022803D005E040F6B83001E041F2941009
:100F300028804C480089C0F56160A860FFF72CFE4E
:100F400085ED040A02A901A8FFF79AF998ED010AB4
:100F50009DED021AD8ED000ADDED011A20EE012AFE
:100F600020EE210A00EEE12ABDEEC22A12EE100A9E
:100F700001B2698054E009E0FFE700202880D8ED45
:100F8000000A98ED010AB0EE481A2BE7354B41F202
:100F90000D211889081AE860FFF7FEFD85ED050AA6
:100FA0001889C0F56160A860FFF7F6FD85ED040AB9
:100FB00095ED050AB5EEC00AF1EE10FA02DDF0EE8D
:100FC000400A01E0F1EE400A10EE900A26498842FC
:100FD00001DA002009E02148F0EE480A803803F0E9
:100FE00049FDBDEEC00A10EE100A02A9288001A832
:100FF00095ED040AFFF744F9D8ED011A9DED021AA8
:10100000D8ED000A9DED010A21EE812A00EEC02AEA
:1010100021EE800ABDEEC22A12EE100A01B26980EA
:1010200000EE810ABDEEC00A10EE100A00B2A880E0
:10103000B5F9002000EE102AB8EEC01A00EE100A32
:10104000F8EEC00A00EE101AB8EEC00ACAE60000B8
:10105000C6000020D20000200000000084480020CC
:10106000F0440020E045002033335340A40000202A
:10107000F846002028470020B0000020A0050020EE
:101080003C020020E40000207CB5124C0826069D9E
:1010900026610026A660E6604FF4007626600C0A02
:1010A0008DF800408DF80110110A8DF80210190A10
:1010B0008DF804108DF80530290A8DF806108DF88A
:1010C00003208DF8075001236A46024900F024FBF3
:1010D0007CBD0000304600202DE9F0414FF47A74C9
:1010E0002DED028B42F210759FED3D8AB0EE001A95
:1010F000B7EE080AF0EE480A23462A46032139488B
:1011000002F048FD3748B0EE481ADFED370A9FED90
:10111000370A23462A460321A03802F03BFD314D11
:101120000024DFED338A803541F288364FF4FA57D8
:10113000F0EE680A05EBC410B0EE601AB7EE000AD4
:1011400033463A46032102F025FD641C042CEFDBF4
:101150004FF4FA74DFED278A41F27075B0EE481A49
:10116000F0EE480AB0EE680A23462A4603212248D8
:1011700002F010FD2048B0EE481AF0EE480AB0EE3A
:10118000680A23462A460321803002F003FDB0EEB0
:10119000481AF0EE480AB0EE680A23462A460321B0
:1011A000164802F0F7FC1548B0EE481AF0EE480A6F
:1011B000B0EE680A23462A460321803002F0EAFC9A
:1011C000AB10BDEC028B5A00BDE8F0419FED0C1A4C
:1011D000DFED0C0A9FED0C0A03210C4802F0DABC8B
:1011E0000AD7233CA448002052B89E3E0000484243
:1011F000000000009A99193F244B0020244C002045
:10120000D7A300406F12833ACDCC4C3F78460020E4
:10121000014800F0E3BE000000070020014800F094
:10122000DDBE0000A006002001681823CAB2103AF3
:10123000B2FBF3F2054B6FF30901032A9B5CC36514
:1012400000D9091D81650846704700000860000844
:1012500010B5014600208B698A6A4FF0C07453B103
:10126000B3F5005F15D072B1012A0CD0022A0AD062
:10127000032A09D104E01AB1012A06D0022A03D1B7
:10128000C96AC90100D5012010BDC96AA142FAD0BE
:1012900010BD002AF7D0012AF2D0022AF3D0032A87
:1012A000F3D010BD30B50468256825F4802525608D
:1012B000046863608368402B036803D0996000680A
:1012C000C26030BD9A600068C16030BD7047704731
:1012D00010B50F4C2DED028BA068FFF730FA41ECF2
:1012E000180BE0680068406AFFF73AFA9FED091BA7
:1012F00053EC112BFFF7B4F953EC182BFFF797F8C9
:10130000FFF766FABDEC028B00EE100A10BD00007C
:1013100064470020000000000000594078B5002418
:10132000009490F83C20012A19D0012280F83C203A
:101330000A6807230568092A13D9EE680A3A02EBFE
:10134000420293409E43EE600B788A680A3B03EBAF
:1013500043039A400368DD682A43DA6010E0022004
:1013600078BD2E6902EB420293409E432E610B78BA
:101370008A6803EB43039A4003681D692A431A6194
:101380004A681F23072A13D205686E6B521E02EBB0
:10139000820293409E436E630B790A885B1E92B271
:1013A00003EB83039A4003685D6B2A435A6327E08B
:1013B00005680D2A12D22E6BD21F02EB82029340D7
:1013C0009E432E630B790A88DB1F92B203EB8303E3
:1013D0009A4003681D6B2A431A6311E0EE6A0D3AC6
:1013E00002EB820293409E43EE620B790A880D3B2A
:1013F00092B203EB83039A400368DD6A2A43DA6200
:10140000164B0568144A9D4206D10D68122D03D172
:10141000556845F48005556005689D4218D10B68F4
:10142000102B01D0112B13D1536843F400035360E8
:10143000096810290CD10A490A4A0968B1FBF2F17E
:1014400001EB8101490000E0491E00910029FBD118
:1014500080F83C40002078BD00230140002001407E
:101460003400002040420F0070477047704770B54D
:1014700004004FF0000503D0206C002610B107E0F7
:10148000012070BD204600F01DF8666484F83C60C1
:10149000206CC00610D4206C20F4885040F002006C
:1014A00020642046FFF7E4FA6664206C20F0020016
:1014B00040F00100206400E0012584F83C602846EB
:1014C00070BD0000F0B587B0064614216846FEF7EF
:1014D000A3FF3648344F34680025344914380323B9
:1014E000334ABC4230D10C6844F480740C60096803
:1014F00001F480710591016841F00101016000680B
:10150000694600F00100059012208DE82900104680
:1015100000F0DAFE284C2748C4E900050015A56054
:10152000C4E90350800060618000A0618011C4E9BB
:1015300007052046656200F021FE08B1FFF7C7FEEF
:10154000B463A66307B0F0BD1C4EB44211D10C6861
:1015500044F400740C60096801F40071059101689D
:1015600041F001010160006800F0010005900420D5
:1015700013E0134EB442E5D10C6844F480640C606F
:10158000096801F480610591016841F00101016081
:10159000006800F00100059008208DE829006946E8
:1015A000104600F091FECDE7002001404438024093
:1015B0000000024070640240DC0100200021014074
:1015C00000220140F8B50E4600210446009190F833
:1015D0003C00012807D0012084F83C002068836883
:1015E000DB0702D011E00220F8BD836843F001035D
:1015F00083603748374B0068B0FBF3F000EB4000E6
:1016000000E0401E00900028FBD120688368DB07C3
:101610005CD0236C40F20165AB4343F480732364D8
:101620004068400505D5206C20F4005040F48050FF
:101630002064206CC00404D5606C20F00600606457
:1016400000E0616484F83C10A16B2448224DC8631B
:10165000A16B23480864A16B2248C86421686FF01D
:10166000220008602068416841F080614160206884
:10167000816841F4807181602168134632464C31A3
:10168000A06B00F0E5FD68681749C006206806D029
:1016900088421BD1816811F0405F13D016E0884268
:1016A000F8D0124A904203D1D1F80423D206F1D0E7
:1016B0000F4A90420AD1D1F8041301F01F011029FA
:1016C000E8D303E0816841F0804181600020F8BDEB
:1016D0003400002040420F0000230140E3090008CD
:1016E000670A0008510A000800200140002101405B
:1016F0000022014090F82020012A07D0022A05D0BC
:10170000416A41F4802141620120704700684269CA
:101710000A43426100207047F0B590F820500468F9
:10172000A468012D05D0022D03D0416A41F4802127
:1017300053E014F0406F01D1E5004BD5C4F30164D0
:10174000022C03D9416A41F4000146E00125A5407D
:101750001D608D684FF4C0739DB1CE6835434E68EF
:1017600045EAC605066803EB0417F5514FF4C27548
:10177000076805EB04150E697E51097D012905D026
:1017800009E00E88CD6845EA4655EBE701684E59F9
:1017900046F480764E511179D2F805504FF4C67652
:1017A00041EA0525016806EB04168D511178D2F83F
:1017B00001204FF4C47541EA0221026805EB0415CB
:1017C0005151006803EB0411425842F001024250AB
:1017D0000020F0BD416A41F4001141620120F0BDDA
:1017E00010B590F82020012A07D0022A05D0416ABE
:1017F00041F480214162012010BD3B48D0F8002215
:1018000042F00102C0F80022D0F8002222F47C52FB
:10181000C0F80022D0F800224B6A42EA0322C0F846
:1018200000220A7D02F01F0301229A40D0F81C32E8
:101830009343C0F81C32CB69B3B9D0F80C32934350
:10184000C0F80C328C894B6864F31F434C6900EB81
:10185000C404C4F840320C890B6864F31F434C691C
:1018600000EBC404C4F84432CB69012B16D1D0F884
:101870000C321343C0F80C320C884B6864F31F43DE
:101880004C6900EBC404C4F840320C89CB6864F3A3
:101890001F434C6900EBC404C4F844328B69002B2D
:1018A000D0F804320ED01343C0F804320B69002B79
:1018B000D0F8143208D01343C0F81432096A012951
:1018C00004D008E09343EFE79343F5E7D0F81C1208
:1018D0001143C0F81C12D0F8001221F00101C0F829
:1018E0000012002010BD000000640040704730B5B9
:1018F00090F82040012C05D0022C03D0416A41F41D
:1019000080215DE00468002955D02469A40754D0E3
:101910004FF4D874056804EB01142D5915F0040533
:10192000956005682D594ED0ED08556005682C5915
:10193000C4F34004D4604FF4DA74056804EB011476
:101940002D5905F00F05156105682D59C5F30725BB
:10195000956105682C59240C54614FF4DC720468BD
:1019600002EB0112A4581C700468A458240A5C708D
:101970000468A458240C9C700468A258120EDA70F3
:101980004FF4DE72046802EB0112A4581C71046863
:10199000A458240A5C710468A458240C9C7104683F
:1019A000A258120EDA71006881B1016941F020017C
:1019B0000161002030BDE468A8E7416A41F40011EC
:1019C0004162012030BD6D0D1560AFE7C16841F087
:1019D0002001C160EDE72DE9F05F054600680024B5
:1019E0004669D0F804908768D0F80CB0D0F810A001
:1019F000D0F81880F10748D0F90714D00121816090
:101A0000B80703D5284600F0D0FA0CE0780702D5D5
:101A10004FF4006407E0380702D54FF4805402E029
:101A2000284600F0C1FAF80516D529684FF48070F1
:101A30008860B80503D5284600F0B9FA0CE07805AF
:101A400002D544F4005407E0380502D544F480443C
:101A500002E0284600F0AAFAF80316D529684FF4E8
:101A600080308860B80303D5284600F0A2FA0CE065
:101A7000780302D544F4004407E0380302D544F467
:101A8000803402E0284600F093FA300707D55FEA79
:101A9000CB6004D52968102044F40074C860700736
:101AA0004FF0080707D55FEA0B7004D52868C760B8
:101AB000284600F099F9B00706D52868C068800765
:101AC00002D0284600F092F9700607D55FEACA6096
:101AD00004D52968102044F480640861B00607D555
:101AE0005FEA0A7004D528680761284600F02CFADE
:101AF000F00606D528680069800702D0284600F065
:101B000024FAB00308D55FEAC96005D5296810201A
:101B10004860284600F01AFAF00307D55FEA09701A
:101B200004D528684760284600F044FA300446D5BA
:101B30005FEA497040D5F00504D55FEAC87001D06E
:101B400044F00104B00504D55FEA887001D544F083
:101B50000204700504D55FEA487001D544F004041E
:101B6000300529D518F0700F26D008F070004028F5
:101B700015D006DC102809D020280AD0302816D12C
:101B80000AE050280ED0602811D10EE044F008047D
:101B90000DE044F010040AE044F0200407E044F0B3
:101BA000400404E044F0800401E044F480742868B8
:101BB000816921F070018161296804204860002C4E
:101BC00005D0686A204368622846FFF78FFEBDE8AB
:101BD000F09F70B5040003D094F8200010B104E029
:101BE000012070BD204600F081F82068016821F0D6
:101BF0000201016000F04CFC0546052604E000F0FF
:101C000047FC401B0A2811D8206840688007F6D49A
:101C10002068016841F00101016000F039FC0546CF
:101C20000BE000F035FC401B0A2806D9606A40F43E
:101C30000030606284F82060D2E720684068C00706
:101C4000EFD0207E0128206801683DD021F080017E
:101C50000160607E01282068016838D021F04001D1
:101C60000160A07E01282068016833D021F02001A6
:101C70000160E07E0128206801682ED041F010014B
:101C80000160207F01282068016829D021F0080127
:101C90000160607F01282068016824D021F00401E0
:101CA0000160D4E902010843D4E904121143084356
:101CB0006168491E08432168C861002060620120F4
:101CC00084F82000002070BD41F08001C0E741F0A1
:101CD0004001C5E741F02001CAE721F01001CFE73C
:101CE00041F00801D4E741F00401D9E7F0B587B02D
:101CF000044614216846FEF78FFB364B3648DFF862
:101D0000D0E01968D4F800C0334A03250226092719
:101D100010300024491CF44522D11960012907D153
:101D2000016841F000710160006800F000700590EA
:101D3000106840F0080010601068CDE9005600F00F
:101D40000800CDE9047069462448CDE9024500F059
:101D5000BBFA00220521142000F026FC142033E0F9
:101D6000DFF87CE0F44531D1D0F800C04CF0806C55
:101D7000C0F800C0D0F800C001290CF0806CCDF88C
:101D800014C0196007D1016841F00071016000685A
:101D900000F000700590106840F0020010601068BC
:101DA00002AB00F0020005904FF44050CDE9000670
:101DB00083E8B00069460B4800F086FA002205214E
:101DC000402000F0F1FB402000F0E0FB07B0F0BD48
:101DD000006400400000002030380240000C024047
:101DE0000068004000040240704700002DE9F04107
:101DF0004E494F4C4F4D504F4FF488784FF080561E
:101E000088426CD105F108034C4A0021FFF76FFDB1
:101E10004A4840F2022C332200684949A0F20223CA
:101E2000604528D00CDC40454FD0581C55D1886AFD
:101E3000431C8B62322816D805F1080140480EE099
:101E4000012B26D0022B48D1D1F8DC30581CC1F828
:101E5000DC003B48B430322B2CD836490831BDE881
:101E6000F04102F085BD8A6232493548083102F0FE
:101E70005FFD002025E04B6E581C486630483C3022
:101E8000322BEAD94A662B49083102F051FD012074
:101E900017E0D1F8A030581CC1F8A00028487830CD
:101EA000322BDAD9C1F8A0202249083102F040FDD6
:101EB000022006E0C1F8DC201E49083102F038FD9E
:101EC0000320BDE8F04101F03BBF1A48083023E091
:101ED0003E60BFF34F8FBFF36F8FBDE8F0811949AC
:101EE0008842FAD1134B154A10331C320021FFF7F8
:101EF000FEFC12481C30006840450BD0A0F58070F5
:101F00001938EAD00728E8D1BDE8F0410948103077
:101F1000FEF7CEBE07481030FEF7DEFE054920680A
:101F200003F05CFD28680028D2D1D6E73C020020EF
:101F3000080000201000002004ED00E060070020F1
:101F4000F044002064020020704770477047000092
:101F500070B5044690F82000012804D0606A40F46F
:101F60000020606218E0022084F8200020680168E8
:101F700021F00101016000F08BFA05460EE000BF80
:101F800000F086FA401B0A2808D9606A40F4003045
:101F90006062052084F82000012070BD2068406840
:101FA000C007EDD1606270BD7047704770477047E1
:101FB00070477047704790F83510022903D0802190
:101FC000416501207047052180F8351000680168DF
:101FD00021F0010101600020704700002DE9F84365
:101FE00004464FF00009CDF8009063484FF41651B5
:101FF000A56D0068B0FBF1F72E6894F85C1008201E
:1020000000FA01F131420FD021680A6852070BD55E
:102010000A6822F004020A6094F85C108840A86004
:10202000606D40F00100606594F85C104FF00108AD
:1020300008FA01F0304208D021684969090604D540
:10204000A860606D40F00200606594F85C100420A8
:102050008840304208D021680968890704D5A86003
:10206000606D40F00400606594F85C1010208840BA
:10207000304218D021680968090714D5A860206883
:102080000168490304D50068000308D5A16C07E086
:102090000168C90503D4016821F008010160216CC1
:1020A00009B12046884794F85C10202088403042CF
:1020B00031D021680968C9062DD5A86094F835008B
:1020C00005282068016806D0490347D50068000349
:1020D0001DD4616C1CE021F016010160206841698B
:1020E00021F080014161206C08B9A06C20B120680A
:1020F000016821F00801016094F85C103F208840DD
:10210000A86084F8349084F83580216D1FE0E16B7D
:1021100009B120468847606D00282BD0606DC0074C
:1021200014D0052084F835002068016821F00101F1
:1021300001600098401C0090B84203D820680068F5
:10214000C007F6D184F8349084F83580E16C00291A
:1021500010D001B02046BDE8F04308470168C9052A
:10216000D5D4016821F01001016084F8349084F81E
:102170003580CCE7BDE8F883340000202DE9F0413C
:10218000044600F085F906465CB1002584F8345019
:10219000022084F835002068016821F00101016007
:1021A0000DE00120BDE8F08100F072F9801B0528E8
:1021B00005D920206065032084F83500F2E7206807
:1021C0000068C007F0D12268116820480140D4E9B6
:1021D00001031843D4E903363343184363691843B2
:1021E000A3691843E3691843236A18430843616AE3
:1021F000042903D1D4E90B13194308431060206864
:102200004069666A20F0070130460E430127042822
:102210000CD1A06A0643E06A40B12046FFF718F8E7
:1022200020B14020606584F83570BAE720684661C7
:102230002046FEF7F9FF94F85C203F219140816031
:10224000656584F835700020ACE700003F8010F031
:102250002DE9F0410446866D90F8340000250128F0
:102260000DD0012084F8340094F835700020012F3F
:1022700007D084F8340002252846BDE8F08102200A
:10228000FBE7022784F8357060652046FFF70AF8FF
:1022900094F85C103F208840B0602068016841F0ED
:1022A000160101602068416941F080014161206CA4
:1022B00020B12068016841F00801016020680168D0
:1022C00041F001010160D7E72DE9F84FDFF87CB15B
:1022D00000224FF001084FF0030A4FF00F090BF1F5
:1022E000040E00BF0B6808FA02F42340A3426ED12B
:1022F0004D68022D01D0122D0ED1D50800EB850CB2
:10230000DCF820505607F70E09FA07F6B5430E69B8
:10231000BE402E43CCF82060066855000F790AFABB
:1023200005FC07F0030726EA0C06AF4037430760B9
:102330004E68012E05D0022E03D0112E01D0122E90
:102340000ED18668CF6826EA0C06AF403743876017
:102350004668A6430C79C4F30014944034434460A7
:10236000C6688C6826EA0C06AC403443C4604C68EE
:10237000E40065D5364C256845F480452560246821
:1023800022F0030504F480440094324C2E19D6F850
:10239000084895072F0F09FA07F5AC432E4DA842C0
:1023A00001D1002524E02D4DA84201D101251FE0D7
:1023B0002B4DA84201D102251AE02A4DA84201D195
:1023C000032515E0284DA84202D1042510E037E08E
:1023D000264DA84201D105250AE0254DA84201D18C
:1023E000062505E0234DA84201D1072500E0082578
:1023F000BD402543C6F80858DBF800405D464E68EE
:102400009C43F60300D51C432C60DEF80040754663
:102410004E689C43B60300D51C432C600B4D083519
:102420002C684E689C43F60200D51C432C60074D77
:102430000C352C684E689C43B60200D51C432C60BA
:10244000521C102AFFF44EAFBDE8F88F003C01404B
:1024500044380240003001400000024000040240C5
:1024600000080240000C024000100240001402402C
:1024700000180240001C0240426931EA020200D109
:102480000904816170470AB1816170470904FBE763
:1024900001488068704700002800002002488168D9
:1024A0000278114481607047280000200B4810B565
:1024B000016841F400710160016841F480610160CC
:1024C000016841F480710160032000F08DF8002064
:1024D00000F006F800F03EF8002010BD003C02407D
:1024E00010B5014688B00022192000F05DF81920CF
:1024F00000F04CF813480024016841F0010101602C
:10250000006805A900F001000690684600F016F981
:1025100000F04AF90C494000B0FBF1F10C480B4ABD
:10252000491E026040F2E732C0E90324C0E9011409
:1025300000F04DFB10B1012008B010BD044800F0C0
:10254000A7FBF9E74438024040420F000000014079
:10255000980700200C4882B0016841F48041016076
:10256000006800F4804000900748001F016841F0B7
:10257000805101600068002200F0805000900F211F
:10258000901E02B000F010B844380240002809DB69
:1025900000F01F02012191404009800000F1E0207D
:1025A000C0F8001170470000F0B40E4B1B680C46D9
:1025B000C3F30223C3F10705042D00D90425191D17
:1025C000072901D2002300E0DB1E012606FA05F1EF
:1025D000491E214099409E40761E16403143F0BC72
:1025E00002F035B90CED00E0064900F0070208687A
:1025F0004FF6FF03184040EA0220034A10430860E8
:10260000704700000CED00E00000FA052DE9F047EE
:102610000E46050065D0DFF81481D8F80000F7B247
:1026200000F00F00B04207D288F80070D8F8000020
:1026300000F00F00B04254D128683D4C810712D5FC
:10264000400703D5206840F4E05020602878000758
:1026500003D5206840F4604020602068A96820F01D
:10266000F000084320602878C0072DD03049686802
:102670000839012812D0022813D0032811D0096884
:10268000890700292DDA216821F003010143216027
:10269000FFF7FEFE814641F2883A0EE009688903A1
:1026A000EFE709688901ECE7FFF7F2FEA0EB09010B
:1026B000514502D90320BDE8F0872068696800F021
:1026C0000C00B0EB810FEFD1D8F80010404601F0BC
:1026D0000F01B14207D90770006800F00F00B04247
:1026E00001D00120E7E72878400705D52068E96890
:1026F00020F4E050084320602878000706D52068C1
:10270000296920F4604040EAC100206000F05CF8D4
:102710002168084AC1F30311515CC84006490860AA
:102720000020FFF7DDFE0020C5E70000003C02406E
:102730000838024010600008340000200F220260B8
:102740000C4A136803F003034360136803F0F003BB
:102750008360136803F4E053C36012684FF4E053DE
:1027600003EAD20202610448006800F00F0008602A
:102770007047000008380240003C024001480068F1
:1027800070470000340000200448054900680968CB
:10279000044AC1F38221515CC840704734000020D4
:1027A00008380240206000080448054900680968AC
:1027B000044AC1F34231515CC840704734000020E4
:1027C0000838024020600008154810B5006810F075
:1027D0000C02144813D01449042A0FD0082A0ED131
:1027E0000F4C241F2268236802F03F025B0207D5CA
:1027F0002068C0F38810A0FB010106E0084610BD68
:102800002168C1F38811A1FB00010023FDF7BAFD87
:102810002168C1F30141491C4900B0FBF1F010BD32
:10282000083802400024F40000366E012DE9F84F0C
:10283000050076D02878DFF8F8B2BE4CC00749D042
:10284000DBF800105846C1F38101012908D0006867
:10285000C0F3810002280AD1201D0068400206D57D
:102860002068800336D568680028E2D032E06868C6
:10287000B0F5803F10D0B0F5A02F206810D020F424
:1028800080302060206820F4802020606868A0B13B
:10289000FFF7FEFD06460CE0206840F48030F4E7C8
:1028A00040F480202060F7E7FFF7F2FD801B6428EA
:1028B00073D820688003F7D50CE0FFF7E9FD0646E2
:1028C00005E000BFFFF7E4FD801B6428F0D8206816
:1028D0008003F7D42878DFF8608280074FF0000982
:1028E0003ED5DBF80010584611F00C0F09D00068F7
:1028F000C0F3810002280BD18D48001F0068400200
:1029000006D42068800715D5E868012809D111E0B0
:10291000E868B8B10120C8F80000FFF7B9FD064625
:1029200005E002E1FFF7B4FD801B0228C0D8206853
:102930008007F7D52068296920F0F80040EAC10037
:1029400020600DE0C8F80090FFF7A2FD064604E005
:10295000FFF79EFD801B02281FD820688007F7D450
:102960002878000722D5724E744869696C3671B1B7
:1029700001210160FFF78CFD074604E0FFF788FDA9
:10298000C01B022809D830688007F7D50EE0C0F8D0
:102990000090FFF77DFD074605E083E0FFF778FD37
:1029A000C01B02287ED830688007F7D428784007FB
:1029B00068D5DFF87CA100270AF1380ADAF80000B0
:1029C000C0000BD4DAF8001041F08051CAF80010B2
:1029D000DAF80000012700F080500090584E30686F
:1029E000C00510D4306840F480703060FFF750FDAF
:1029F000009005E0FFF74CFD0099401A022851D8DD
:102A00003068C005F6D54A4EA868683601280FD050
:102A10000528306810D020F001003060306820F0C8
:102A200004003060A868B8B1FFF732FD00900FE0F5
:102A3000306840F00100F4E740F004003060F7E750
:102A4000FFF726FD0099411A41F28830814264D88F
:102A500030688007F4D50EE0FFF71AFD009007E01C
:102A6000FFF716FD0099411A41F28830814254D88F
:102A700030688007F4D42FB1DAF8001021F08051CB
:102A8000CAF80010A869C0B3DBF80010C1F38101D7
:102A900002294AD00228484607D0C8F86000FFF74C
:102AA000F7FC00E039E005463AE04746C8F8600028
:102AB000FFF7EEFC064604E0FFF7EAFC801B022865
:102AC0002BD820688001F7D4D5E907010843A96A0B
:102AD0001C4A490802EB01416A6A41EA8211084333
:102AE00095F82C1040EA01611148001F0160012097
:102AF0003866FFF7CDFC054605E014E0FFF7C8FC9B
:102B0000401B022809D820688001F7D50BE000BFE0
:102B1000FFF7BEFC401B022802D90320BDE8F88F56
:102B200020688001F4D40020F8E70120F6E70000D7
:102B3000083802400038024000004742800E4742F9
:102B4000007000400000FFFF4FF0E02104280869FA
:102B500003D020F004000861704740F00400FAE759
:102B600010B5401EB0F1807F01D3012010BD4FF0A1
:102B7000E02460610F21601701F069FE0020A06170
:102B800007202061002010BD7047704770B590F895
:102B90003C20012A19D0012400F83C4F0222427047
:102BA00050F83C3C5A689D6822F070060A684968F3
:102BB000324325F0800529435A6050F83C2C91603F
:102BC000447000210170084670BD022070BD10B530
:102BD000040003D094F83D0010B107E0012010BDBF
:102BE000002084F83C00204600F00CF8022084F815
:102BF0003D00211D206801F0E1F9012084F83D002D
:102C0000002010BD08B51E4A01681E4891420ED131
:102C1000016841F0020101600068002200F002003A
:102C2000009005211D20FFF7BFFC1D2022E0164A61
:102C300091420ED1016841F0040101600068002258
:102C400000F00400009005211E20FFF7ADFC1E20BF
:102C500010E00E4A914211D1016841F080010160FB
:102C60000068002200F08000009005212C20FFF772
:102C70009BFC2C20BDE80840FFF788BC08BD000085
:102C8000000400404038024000080040001C0040A2
:102C90000168CA6842F00102CA600068816801F0F8
:102CA0000701062903D0016841F0010101600020FD
:102CB000704770B5044690F83C00012817D00125F4
:102CC00084F83C50022084F83D002068826822F09D
:102CD000770222F47F4282600868502830D00DDCF1
:102CE00020284DD005DC98B310283BD148E00220C5
:102CF00070BD302844D0402834D139E0602828D035
:102D0000702806D0B0F5805F2CD0B0F5005F29D1D7
:102D10000AE0CB68D1E90121206801F0B3F920680D
:102D2000816841F0770109E0CB68D1E90121206891
:102D300001F0A8F92068816841F48041816011E0C8
:102D4000CA684968206801F0AFF95021206807E09F
:102D500016E0CA684968206801F0B7F96021206868
:102D600001F09AF984F83D50002084F83C0070BDD1
:102D7000CA684968206801F097F940212068EFE7A8
:102D8000226801461046EBE7704770B504460068BC
:102D900001694FF00005C943890715D4C168C943CB
:102DA000890711D4E91E016101202077206880691C
:102DB0008007204602D0FFF7E7FF04E000F098F814
:102DC000204600F096F8257720680169C943490735
:102DD00017D4C168C943490713D46FF004010161D6
:102DE000022020772068806910F4407F204602D0BE
:102DF000FFF7CAFF04E000F07BF8204600F079F806
:102E0000257720680169C943090716D4C168C943F9
:102E1000090712D46FF008010161042020772068AF
:102E2000C0698007204602D0FFF7AEFF04E000F043
:102E30005FF8204600F05DF8257720680169C943F6
:102E4000C90617D4C168C943C90613D46FF010016D
:102E50000161082020772068C06910F4407F204677
:102E600002D0FFF791FF04E000F042F8204600F0A6
:102E700040F8257720680169C943C90708D1C168AE
:102E8000C943C90704D1891E0161204600F032F808
:102E900020680169C943090609D4C168C943090604
:102EA00005D46FF0800101612046FFF76DFE2068B8
:102EB0000169C943490609D4C168C943490605D413
:102EC0006FF040010161204600F024F8206801699C
:102ED000C94389060BD4C168C943890607D46FF07A
:102EE000200101612046BDE87040FFF74EBE70BD75
:102EF0007047704700680549884201D1FFF7CEBA94
:102F00000349884201D100F027BF7047000001400B
:102F1000000400407047704770B5026804461068AE
:102F2000D168536910F00F0F51D003F0010501F47F
:102F3000907635435DD0C20705D0CA0503D5E26B54
:102F400042F00102E263420705D5DA0703D0E26BE3
:102F500042F00202E263820705D5DA0703D0E26B92
:102F600042F00402E263020705D5DA0703D0E26B00
:102F700042F00802E263E26B002A34D0800604D5F6
:102F8000880602D5204601F019F920684069E16BF6
:102F9000C0F3801001F008010143204624D001F065
:102FA000F6F82068416949061AD5416921F04001C7
:102FB0004161606BA0B11B490165606BFEF7FBFFCF
:102FC000002810D0606B016DBDE870400847830693
:102FD0000FD58B060DD52046BDE8704001F0EEB848
:102FE0002046FFF798FF70BDFFF795FF0020E063D4
:102FF00070BD030606D50B0604D52046BDE870401B
:1030000001F07EBA4006F3D54806F1D5D1682046D6
:1030100021F04001D160202184F8391000F0C5F979
:1030200070BD0000EF40000870B5040004D094F8B3
:103030003900002510B106E0012070BD84F8385039
:10304000204600F023F8242084F839002068C16865
:1030500021F40051C160204601F0FCF820680169AC
:1030600021F4904101612068416921F02A01416108
:103070002068C16841F40051C160E563202084F8F4
:10308000390084F83A00002070BD00002DE9F04FAF
:1030900087B0054614216846FDF7BEF963496248CA
:1030A0002E68624A1439022301240327DFF880E1E5
:1030B0004FF000094FF0C00A4FF0070C4FF0006BC3
:1030C000864238D110684E4640F0100010601068FB
:1030D00000F010000590086840F0020008600868E1
:1030E000CDF800A000F00200CDE904C00DF1040805
:1030F000694688E898007046FFF7E6F84E4C4D4860
:103100002060C4E901B60015C4E90360801066615F
:10311000C4E90660266220466662FFF72FF808B110
:10312000FEF7D5F86C63002205212520A563FFF783
:103130003BFA25203AE03D48DFF80081001F464574
:1031400039D102684E4642F400320260006800F451
:1031500000300590086840F008000860086869467B
:1031600000F00800059060208DE899103448FFF7C2
:10317000ABF8314C334860342060C4E901B6001527
:10318000C4E9036080106661C4E9066026622046D7
:103190006662FEF7F3FF08B1FEF799F86C63002250
:1031A00005212620A563FFF7FFF92620FFF7EEF99A
:1031B00007B0BDE8F08F244DAE4216D1026842F44C
:1031C00080220260006800F480200590086840F0CA
:1031D000020008600868694600F0020005904FF49C
:1031E00040608DE8991070461BE018488642DFD198
:1031F000106840F020001060106800F0200005907A
:10320000086840F0040008600868CDF800A000F0ED
:10321000040005900820CDE90370CDE9013469462A
:103220000B48FFF751F8C3E7001001404438024053
:103230000004024040640240A00600200044004018
:10324000000C024088600240004800400014014029
:1032500000080240F8B5044690F83A0020283CD116
:10326000C1B3BAB394F83800012836D0012084F8ED
:103270003800A162A2850025E563222084F83A0087
:10328000636B1748D863636B16481864636B164802
:10329000D864606B134605650846666B2168024674
:1032A0003046091DFEF7D4FF20680168416800918F
:1032B00084F83850C16841F48071C1602068416968
:1032C00041F0010141612068416941F040014161E3
:1032D0000020F8BDFFE70120FBE70220F9E700002E
:1032E0004941000885410008FF40000870477047C9
:1032F0002DE9F843044690F839001F4616460D465E
:10330000202850D1A5B19EB194F8380001284AD0A8
:10331000012084F838004FF00008C4F83C802120D8
:1033200084F83900FFF7B4F8A6848146E68426E0E5
:103330000120BDE8F883E08C401EE084A0684B4685
:10334000B0F5805F4FF000024FF0800120460097FB
:1033500003D001F006F9E8B90DE001F002F9C8B9AF
:1033600028882168C0F308004860206908B16D1CF6
:1033700005E0AD1C03E0216815F8010B4860E08C06
:103380000028D8D14B46002240212046009701F06A
:10339000E8F808B10320CCE7202084F8390084F84D
:1033A00038800020C5E70220C3E77047FEE7000031
:1033B0007FB50024154800940194029412490394A7
:1033C00001604FF48031C0E90114012504610576E4
:1033D00080F820400E49C0E90A14C561C46080F835
:1033E00030504561FEF743F808B1FDF770FF0095D6
:1033F000CDE9015469460548FDF790FF002801D04A
:10340000FDF765FF7FBD00000020014004010020A2
:103410000100000F7FB50024154800940194029428
:103420001249039401604FF48031C0E90114012571
:103430000461057680F820400E49C0E90A14C56190
:10344000C46080F830504561FEF711F808B1FDF70F
:103450003EFF0220CDE90005694602940448FDF7CD
:103460005DFF002801D0FDF732FF7FBD0021014044
:103470004C0100200100000F7FB500241548009486
:10348000019402941249039401604FF48031C0E921
:10349000011401250461057680F820400E49C0E939
:1034A0000A14C561C46080F830504561FDF7DFFF44
:1034B00008B1FDF70CFF0320CDE900056946029431
:1034C0000448FDF72BFF002801D0FDF700FF7FBD6A
:1034D00000220140940100200100000F0F4810B5A8
:1034E0000D4901600621416000214FF48032816066
:1034F000C0E903124FF440124261017641768176B1
:10350000C17601774177FEF764FB002803D0BDE860
:103510001040FDF7DCBE10BD006400403C020020FE
:103520000F4810B50D4901600621416000214FF49C
:1035300080328160C0E903124FF44012426101768B
:1035400041768176C17601774177FEF742FB00280C
:1035500003D0BDE81040FDF7BABE10BD00680040C2
:1035600064020020114808B5016841F4800101603F
:10357000016801F480010091016841F400110160CB
:103580000068002200F40010009005211020FFF7D1
:103590000BF81020FEF7FAFF002205213A20FFF772
:1035A00003F8BDE808403A20FEF7F0BF303802408B
:1035B00010B59CB01C2216496846FCF714FF002188
:1035C000684601F021FA134C11491C2220601C317D
:1035D00007A8FCF708FF002107A801F015FA0C491D
:1035E00060601C2238310EA8FCF7FDFE00210EA8F9
:1035F00001F00AFA064960601C22543115A8FCF754
:10360000F2FE002115A801F0FFF9A0601CB010BD6A
:10361000985F0008040000202DE9F04786B01421CF
:103620006846FCF7F9FE3D480024016841F020019E
:103630000160016801F020010591016841F08001FD
:103640000160016801F080010591016841F0040109
:103650000160016801F004010591016841F0010178
:103660000160016801F001010591016841F010015C
:103670000160016801F010010591016841F002014B
:103680000160016801F002010591016841F0080143
:1036900001600068DFF8888000F0080041F67F05CF
:1036A0000590002229464046FEF7EDFEDFF87490B3
:1036B0004FF44046002231464846FEF7E4FEDFF86C
:1036C00068A04FF48047002239465046FEF7DBFEE3
:1036D00000950125CDE90154694640460394FEF763
:1036E000F3FD062000901148CDE901046946104819
:1036F000FEF7EAFD0096CDE9015469464846039479
:10370000FEF7E2FD0097CDE9015469465046039467
:10371000FEF7DAFD06B0BDE8F08700003038024061
:10372000001402400010024000040240000011108A
:10373000000802400C4810B50A490160532141605D
:10374000002140F2E732C0E902120161802181616B
:10375000FFF73DFA08B1FDF7BAFDBDE81040024899
:10376000FFF796BA001C00406005002010B586B037
:10377000002418480094019402940394049414497A
:10378000059401605321C0E9011440F2E731C0E91A
:10379000031480218161FFF71AFA08B1FDF797FD44
:1037A0004FF48050009069460A48FFF782FA08B14A
:1037B000FDF78DFD049404A906480594FFF7E6F98A
:1037C00008B1FDF784FD0348FFF762FA06B010BDAB
:1037D00000040040E004002010B586B00024184822
:1037E0000094019402940394049414490594016094
:1037F0005321C0E9011440F2E731C0E903148021EC
:103800008161FFF7E4F908B1FDF761FD4FF48050E5
:10381000009069460A48FFF74CFA08B1FDF757FDDA
:10382000049404A906480594FFF7B0F908B1FDF720
:103830004EFD0348FFF72CFA06B010BD000800400B
:10384000200500200C4810B50A4901604FF4E13111
:103850004160002181600C22C160C0E904128161D5
:10386000C161FFF7E1FB002803D0BDE81040FDF780
:103870002EBD10BD00100140A00500200C4810B561
:103880000A4901604FF4E1314160002181600C225E
:10389000C160C0E904128161C161FFF7C5FB002866
:1038A00003D0BDE81040FDF712BD10BD004400403C
:1038B000E00500200C4810B50A4901604FF4E131E1
:1038C0004160002181600C22C160C0E90412816165
:1038D000C161FFF7A9FB002803D0BDE81040FDF748
:1038E000F6BC10BD00480040200600200C4810B572
:1038F0000A4901604FF4E1314160002181600C22EE
:10390000C160C0E904128161C161FFF78DFB00282D
:1039100003D0BDE81040FDF7DABC10BD0014014033
:1039200060060020FEE708B502F06AFA4FF4FA7468
:10393000009001F0B1FB2146684601F04FF8F8E72E
:1039400070B58648428A8648510401D5012101702C
:10395000110401D502210170D10607D541F2883149
:1039600041804EF678438380C1801CE001780129B4
:1039700002D002290CD017E041F20C2141804EF612
:10398000F451818040F6E441C1804FF21C310AE0DD
:1039900042F2841141804DF67C61818040F678715D
:1039A000C1804FF288010181910606D54FF4FA6378
:1039B000438059428180C38001816E49DFED690AED
:1039C000694B6A4CDFED6A1A91ED000AD5079FED4D
:1039D0006A1A02D030EE600A20E0950702D530EE78
:1039E000200A1BE010EE105A9D4205D210EE105A2C
:1039F000A54201DAC1ED001A91ED000AB5EEC00A48
:103A0000F1EE10FA03DD30EE410A81ED000AB5EE69
:103A1000C00AF1EE10FA03D230EE010A81ED000A7D
:103A2000564D2D78022D30D1524E9FED552A550618
:103A300096ED020A02D530EE420A24E0150602D5C0
:103A400030EE020A1FE010EE105A4E4EB54206D27A
:103A500010EE105A4C4EB54201DAC1ED021A91ED4A
:103A6000022A9FED4A0AB5EEC02AF1EE10FA03DDF4
:103A700032EE402A81ED022AB5EEC02AF1EE10FAAC
:103A800003D232EE000A81ED020AB0F9045091ED42
:103A9000000A02EE105AB8EEC22AB4EEC20AF1EEE3
:103AA00010FA0AD3B0F9025002EE105AB8EEC22A48
:103AB000B4EEC20AF1EE10FA05DD00EE105AB8EECF
:103AC000C00A81ED000A2B4E150796ED010A02D5BA
:103AD00030EE600A20E0520702D530EE200A1BE0EB
:103AE00010EE102A9A4205D210EE102AA24201DAF4
:103AF000C1ED011A91ED010AB5EEC00AF1EE10FA1E
:103B000003DD30EE410A81ED010AB5EEC00AF1EEA7
:103B100010FA03D230EE010A81ED010AB0F9082053
:103B200000EE902AF8EEE00AB4EEE00AF1EE10FAA8
:103B300002D200EE102A0CE0B0F9060000EE900A66
:103B4000F8EEE00AB4EEE00AF1EE10FA05DD00EE60
:103B5000100AB8EEC00A81ED010A70BD1C460020B3
:103B6000E400002000002F44000061C40000614414
:103B7000000000008448002000006144D2000020C2
:103B800000009643000016C40000164400001644CE
:103B90007047000030B4034C8467034CC46730BCEA
:103BA00001F04CB83D4C00084B4C00082DE9F05F8B
:103BB0005D4E02215D48FEF75FFC5D4F0025DFF89A
:103BC00074914FF0010ADFF870B1DFF870817C6802
:103BD0009DE0705DA5287DD174190521204602F075
:103BE00003F8002876D0B4F801102046093101F01E
:103BF000DDFF00286ED0B4F80500A0F50071013992
:103C00001FD1E17989F80010217A89F80110B4F800
:103C10000910A9F80210B4F80B10A9F80410B4F8B0
:103C20000D10A9F80810B4F80F10A9F80C10B4F88A
:103C30001110A9F80A10B4F81310A9F80E108BF897
:103C400000A0B4F80500A0F50071023919D1B4F84C
:103C50001110A9F81010B4F81310A9F81210B4F844
:103C60000910A9F83210D4F80B10C9F83410B4F8C0
:103C70000F10A9F838108BF800A0B4F80710A9F8B5
:103C80003010B4F80500A0F50071033911D1D4F853
:103C90000710C9F82010D4F80B10C9F82410D4F874
:103CA0000F10C9F82810D4F81310C9F82C108BF88D
:103CB00000A0B4F80500B0F5017F04D1E17989F8DE
:103CC00006108BF800A0B4F80500A0F500710739C4
:103CD00017D100E019E0E079012806D1217A89F8AE
:103CE0001410D4F80910C9F81810E079022806D188
:103CF000217A89F81510D4F80910C9F81C108BF82E
:103D000000A0607809352844C5B26D1CEDB2B8F842
:103D100000008542FFF45DAF7C60BDE8F05F642188
:103D20000148FCF779BB0000A047002000180240C2
:103D3000BC00002028470020B8000020C40000205C
:103D400010B50446FDF7C4FA024800EB840080ED8C
:103D5000000A10BD7847002002488168491C816034
:103D6000704700006447002010B50446FDF7B0FA24
:103D7000024800EB840080ED000A10BD8847002057
:103D80000C480188C1F5806101EB810100EE101A39
:103D90000949B8EEC00A81ED010A4088C0F580608B
:103DA000C0EBC00000EE100AB8EEC00A81ED000AB8
:103DB000704700001C4600208448002008B502F02F
:103DC0001FF80E4C4FF0FF3500902946012001F0FE
:103DD00077FC01280CD1FFF7C7FF207A012802D019
:103DE000022805D102E0FFF7ABFD01E0FFF7C8FFB5
:103DF0000721684600F0F2FDE7E700001C460020BE
:103E000070B588B014460D4606462022164968460D
:103E1000FCF7E9FA002D24D0152C22D1ADF8014091
:103E200000208DF80300ADF805600DF1070100BF1B
:103E3000401C15F8012BC0B201F8012BA042F7D3AA
:103E40000521684600F038FDE41DE1B2684600F047
:103E50001DFDADF81C0064231E2269460348FFF7D0
:103E600047FA08B070BD000028630008E005002094
:103E700000F0C0BD30B593B030216846FCF7CCFAF5
:103E800014210CA8FCF7C8FA22480025016841F06B
:103E900080510160006800F0805011901E48016858
:103EA00041F4804101600068022400F480401190D8
:103EB00001200090000401908001CDE90640182007
:103EC00008904FF4A870CDE9090404200B906846CF
:103ED000FEF7ACFC0CA90F2081E831004FF4A05094
:103EE0000F90E002109005210CA8FEF78FFBFEF763
:103EF00045FC4FF47A71B0FBF1F0FEF731FE04207F
:103F0000FEF722FE00220F21501EFEF74DFB13B0DC
:103F100030BD000040380240007000401048016889
:103F200041F4700101600F48016841F00101016036
:103F30000C4A00210832116002680B4B1A400260E3
:103F4000031D0A4A1A60026822F4802202600548B2
:103F50000C30016002495806803908607047000043
:103F600088ED00E000380240FFFFF6FE103000242C
:103F7000044900224A808A80CA808A60024ACA6054
:103F80007047000064470020200500200148FEF72C
:103F9000FCBE0000980700200148FEF7F6BE0000B6
:103FA000E00400200148FEF7F0BE000020050020DC
:103FB0000148FEF7EABE000060050020F0B5026887
:103FC000254C264D264E274F274B4FF0804CA042C4
:103FD00009D0604507D0A84205D0B04203D0B8420E
:103FE00001D0984204D122F0700E4A6842EA0E02D3
:103FF000A0421BD0604519D0A84217D0B04215D0BE
:10400000B84213D0984211D0184DA8420ED0184D86
:10401000A8420BD0174DA84208D0174DA84205D092
:10402000164DA84202D0164DA84203D122F4407585
:10403000CA682A434D6922F080022A4302608A68D6
:10404000C2620A688262A04201D0984201D1096925
:10405000016301214161F0BD000001400004004006
:1040600000080040000C00400004014000400140F6
:10407000004401400048014000180040001C00407E
:104080000020004010B5846842EA032224F47F44F3
:104090000A432243826010BD826822F070020A4304
:1040A00042F007018160704710B5036A046A24F08A
:1040B00001040462846924F0F00444EA021423F049
:1040C0000A020A438461026210BD10B5036A23F03C
:1040D000100303628369046A23F4704343EA0232E3
:1040E00024F0A00343EA01118261016210BD10B502
:1040F000806B0021C185C184FEF70DFF10BD70B536
:10410000846B2068406994F83910C0F3C010002512
:10411000212904D118B1E584204600F046F8206832
:10412000406994F83A10C0F38010222904D118B1E4
:10413000E585204600F02BF8E06B40F01000E063CE
:104140002046FEF7E8FE70BD10B50146806B096899
:104150000968C90513D40021C1850168CA6822F421
:104160008072CA6001684A6922F001024A610168EE
:104170004A6922F040024A61202180F83A10FFF794
:10418000B5F810BD10B5806BFFF7B1F810BD016830
:10419000CA6822F49072CA6001684A6922F001027A
:1041A0004A61202180F83A1070470168CA6822F0FD
:1041B000C002CA60202180F83910704710B590F80D
:1041C0003A10222901D0022010BD8168B1F5805F2C
:1041D00011D00169002901681FD0496801F07F03EF
:1041E000816A4A1C82620B70C18D491E0904090C48
:1041F000C18518D02BE00269816A002A02685268E2
:1042000005D0D2B20A80816A491C8162ECE7C2F310
:1042100008020A80816A891CF7E74A68816A4B1C98
:1042200083620A70E0E70168CA6822F02002CA606F
:104230000168CA6822F48072CA6001684A6922F083
:1042400001024A61202180F83A10FFF74FF8002060
:1042500010BD00002DE9F041044600680169E268E4
:1042600021F44051114301612169A068E2690843CA
:104270006169114322680843D16849F20C6399438C
:104280000143D16020684169A26921F44071114362
:104290004161E2696425B2F5004F97489749226869
:1042A0004FF032083FD08A4201D082427CD1FEF7E3
:1042B0007BFA00EBC00101EB001061688900B0FBE4
:1042C000F1F6FEF771FA00EBC00101EB0010616836
:1042D0008900B0FBF1F0B0FBF5F06FF01801484336
:1042E00006EB800108EB0110B0FBF5F000F0F006E2
:1042F000FEF75AFA00EBC00101EB0010616889007B
:10430000B0FBF1F0B0FBF5F006EB0016FEF74CFA4F
:1043100000EBC00101EB001061688900B0FBF1F710
:10432000FEF742FAD2E08A4201D082423DD1FEF746
:104330003BFA00EBC00101EB001061684900B0FBE3
:10434000F1F0B0FBF5F00601FEF72EFA00EBC0012C
:1043500001EB001061684900B0FBF1F7FEF724FAA9
:1043600000EBC00101EB001061684900B0FBF1F007
:10437000B0FBF5F06FF01801484307EB800108EB44
:10438000C100B0FBF5F000F0F80006EB4006FEF7C8
:104390000BFA00EBC00101EB001061684900B0FBB3
:1043A000F1F7FEF701FA3CE055E0FEF7EDF900EB1E
:1043B000C00101EB001061684900B0FBF1F0B0FBF7
:1043C000F5F00601FEF7E0F900EBC00101EB00108B
:1043D00061684900B0FBF1F7FEF7D6F900EBC001C8
:1043E00001EB001061684900B0FBF1F0B0FBF5F0A3
:1043F0006FF01801484307EB800108EBC100B0FBE8
:10440000F5F000F0F80006EB4006FEF7BDF900EB12
:10441000C00101EB001061684900B0FBF1F7FEF745
:10442000B3F900EBC00101EB001061684900B0FB7B
:10443000F1F0B0FBF5F06FF01801484307EB800195
:1044400008EBC100B0FBF5F000F007002168304434
:104450008860BDE8F081FEF797F900EBC00101EB41
:10446000001061688900B0FBF1F6FEF78DF900EBF2
:10447000C00101EB001061688900B0FBF1F0B0FBF6
:10448000F5F06FF01801484306EB800108EB0110CE
:10449000B0FBF5F000F0F006FEF776F900EBC00196
:1044A00001EB001061688900B0FBF1F0B0FBF5F0A2
:1044B00006EB0016FEF768F900EBC00101EB0010F7
:1044C00061688900B0FBF1F7FEF75EF900EBC0010F
:1044D00001EB001061688900B0FBF1F0B0FBF5F072
:1044E0006FF01801484307EB800108EB0110B0FBA7
:1044F000F5F000F00F00A9E70014014000100140A2
:1045000090F83910212901D0022070478168B1F557
:10451000805F016A0BD04A1C026202680978516010
:10452000C18C491E0904090CC1840ED017E009880A
:104530000268C1F30801516001690029016A02D0D3
:10454000491C0162ECE7891CFBE70168CA6822F09C
:104550008002CA600068C16841F04001C16000206B
:1045600070472DE9F041984617460E460446069DD1
:104570001DE0681C1BD02DB1FDF78AFFA0EB0800E1
:10458000A84214D92068C16821F4D071C1602068A4
:10459000416921F001014161202084F8390084F84B
:1045A0003A00002084F838000320BDE8F08120683C
:1045B000006836EA000004D00020B842D9D00020BC
:1045C000F3E70120F9E700002DE9F8434B4D296896
:1045D0000868C968C0F3001001F0100100287DD000
:1045E00000297BD0464A1068016821F00101016072
:1045F0004449106888420AD04349884207D041495B
:104600006031884203D040496031884201D1202185
:1046100022E03C4B1833D91498421DD03A4B183342
:10462000984219D0374B7833984215D0364B7833AF
:10463000984211D0334B8902303398420CD0324B20
:104640003033984208D02F4B9033984204D02E4BF1
:104650009033984200D089012C4B59602A4B483343
:10466000984202D9284B1B1F05E0264BA8339842DD
:1046700003D9254B083B196008E0224C214B4834F4
:10468000103BA04201D9D96000E099600C21416043
:104690001068016841F001010160DFF874801D4E6F
:1046A00000246F460020414600EB84028A5C3A54A5
:1046B000401C0428F8DB2CB1012C11D0022C16D0A0
:1046C00005E00BE0684600F009F986ED000A641C7D
:1046D000032CE7DB2868016840680090BDE8F88398
:1046E000684600F0FBF886ED020A0224DAE7684625
:1046F00000F0F4F886ED010AECE70000A0050020C8
:10470000A00600201060024010640240100000204B
:1047100004470020F846002038B53A4D2868016863
:10472000C068C1F30011002966D0374C20680168C9
:1047300021F0010101603549206888420AD03449DE
:10474000884207D031496031884203D03049603116
:10475000884201D1202122E02C4A1832D114904203
:104760001DD02B4A1832904219D0284A78329042F4
:1047700015D0274A7832904211D0244A890230322B
:1047800090420CD0224A3032904208D01F4A9032D8
:10479000904204D01E4A9032904200D089011D4AB6
:1047A00051601B4A4832904202D9194A121F05E053
:1047B000164AA832904203D9154A083A116008E017
:1047C000124B124A4833103A984201D9D16000E0A6
:1047D000916040681049C0F164000880FFF7E6F975
:1047E0002168642048602068016841F0010101608F
:1047F0002868016840680090BDE838400148FEF72D
:104800008BBB0000E0050020000700201060024084
:104810001064024010000020C4000020FEE72DE9D3
:10482000F04115460E460746002405E0315D384646
:1048300000F006F8641CE4B2AC42F7D3BDE8F081A6
:1048400013B50A23012201A9FEF752FD1CBD090779
:10485000090E002804DB00F1E02080F80014704706
:1048600000F00F0000F1E02080F8141D704702E016
:1048700008C8121F08C1002AFAD1704770470020EB
:1048800001E001C1121F002AFBD1704730B50C4670
:10489000050001D0022C01D8002030BD0548A11E22
:1048A0000288284600F01EF82919020A01F8020DB4
:1048B0004A7030BDBC00002030B50C46050001D068
:1048C000022C01D8002030BD601E81B2FF22284694
:1048D00000F01EF8291901F8010C30BD90ED000A16
:1048E0007047000010B558B1084C491E0BD310F8A2
:1048F000013B5340DBB234F8133083EA1222F4E771
:104900004FF6FF7010BD104610BD00002861000872
:1049100010B5064C04E000BF10F8013B5340E25CC8
:10492000491E89B2F8D2104610BD00002860000868
:1049300010B5038943810A8852BA02814C88D31A80
:1049400064BA04808C88B3F5805F64BA4480897946
:104950008171016901DD491E03E013F5805F01DA11
:10496000491C016102EB41318289891A416110BD04
:10497000098849BA018181817047FDF797FDFFF7EA
:1049800079FA00F021FFFCF727F9FEF711FE00F09D
:104990003BFF00F02AF8FEE701460020842900D002
:1049A000C81C704770EEC01A30EE200A31EE812A22
:1049B00071EE400A30EE010A80ED002AC0ED010AD6
:1049C00071EE610AC0ED020A80ED030A704710B56E
:1049D00000B9012000F096FF002010BD10B501B90C
:1049E000012100F0B5FF002010BD10B501F052F814
:1049F000002010BD10B501F0F5F9012803D0BDE885
:104A0000104001F081B910BD7FB50D4604464169E3
:104A1000B0F9080081B1A16971B1FFF7BDFFD4E918
:104A200005128DE80700D4E900102B46226901F039
:104A3000AEF9039004B070BDFFF7AEFF03A9CDE956
:104A40000001208A2B4682B2D4E9001001F072F9ED
:104A5000012801D00020EDE70398EBE7044A01218B
:104A6000431813F8013C5354491C0529F8DB7047DF
:104A7000B000002000B530EEC01A80ED080AC0ED8D
:104A8000050A80ED0B1AD0ED191A01469FED6A2A2E
:104A900030EEC00AF5EEC01AB1EE400AF1EE10FA9F
:104AA0000ED0B5EEC01AF1EE10FA02DDF0EE410ABA
:104AB00001E0F0EE400AF4EEE10AF1EE10FA12DC49
:104AC000D1ED1A0AF5EEC00AF1EE10FA0ED0B5EEED
:104AD000C01AF1EE10FA01DDB0EE410AB4EEE00AC0
:104AE000F1EE10FA02D2B0EE420A00BDCA6E01F138
:104AF0003400032A02D0042A3BD07CE091ED000A66
:104B000020EE010A81ED0C0A91ED0D0AD1ED010AAA
:104B100000EE810A81ED0D0A91ED0A0AD1ED020A3B
:104B200031EE400A20EE200A81ED130A91ED1D0AB4
:104B3000B8EE400AFBF740FF91ED0C0AD1ED0D0AEB
:104B400001F1500030EE200AD1ED0E0A30EE200ABD
:104B500081ED140A91ED1C0AB8EE400AFBF72CFF18
:104B600091ED140A81ED150A91ED0E0A81ED120AFC
:104B700041E091ED0A0AD1ED001A71EE400A60EEB3
:104B8000A10AC1ED0C0AD1ED010A60EE810AC1ED66
:104B90000D0AF0EE000A00EE601A91ED090AD1ED5F
:104BA000020A31EE000A20EE200A81ED0E0A91ED94
:104BB0001D0AB8EE400AFBF7FFFE91ED0C0AD1ED9D
:104BC0000D0A01F15C0030EE200AD1ED0E0A30EE44
:104BD000200A81ED160AD1ED180A30EE800A81ED27
:104BE000170A91ED1C0AB8EE400AFBF7E5FE91EDBD
:104BF000170A81ED180A91ED0A0A81ED090A91ED73
:104C00000B0A81ED0A0A91ED070A81ED060A91ED82
:104C1000080A81ED070A91ED040A81ED030A91ED7E
:104C2000050A81ED040AC86E032802D091ED170A27
:104C300000BD91ED140A00BD0000000000F16C0CF5
:104C40008CE80E0080EC030A704780EC030A704782
:104C50002DE9F041184C0F46054666692068001D95
:104C600000F062FD38B9206890F82C1001208840CF
:104C7000A1698143A161681C07D137B12168BDE8F2
:104C8000F0410E48091D00F093BD20683544B5423F
:104C90004560216805D2A068BDE8F041091D00F01B
:104CA0006FBD6068091D00F06BFD206B854200D26E
:104CB0002563BDE8F081000038000020DC080020FA
:104CC0002DE9F041054600F07FFD2E4C2069401C87
:104CD000206120682C4F10B1E06940B32DE02560C1
:104CE0002069012829D1002606EB860007EB800009
:104CF00000F038FD761C072EF6D323488C3000F0E8
:104D000031FD2148A03000F02DFD1F48B43000F0E7
:104D100029FD1D48C83000F025FD1B48DC3000F09F
:104D200021FD19488C3060601430A06005E02068D7
:104D3000E96AC06A884200D82560E06A401CE062E7
:104D4000E96A0120A26988401043A06101EB81005B
:104D500007EB8000291D00F02BFD00F055FDE069F8
:104D600000280CD02068E96AC06A884207D2074947
:104D70004FF080500860BFF34F8FBFF36F8FBDE8D7
:104D8000F0810000380000200008002004ED00E061
:104D900010B5044690F8510058B101280CD00228F3
:104DA0000FD0502080F31188BFF34F8FBFF36F8F68
:104DB000FEE7206B00F03CFD2046BDE8104000F00F
:104DC00037BD10BD10484FF47051420706D0C01DCA
:104DD0000D4920F00700411AC1F570510B4A00231C
:104DE0000144C2E900030839103A21F007011160BB
:104DF0004B600B600B1AC0E9001393604FF000404A
:104E00005360D06070470000F0080020840000204C
:104E1000144E154CA6F1C8074FF08058DFF84C909F
:104E200012E000BF00F0D0FCF068C568281D00F05B
:104E30007BFC2069401E2061E068401EE06000F0BD
:104E4000E3FC2846FFF7A4FFE0680028EAD13868B1
:104E50000128F9D9C9F80080BFF34F8FBFF36F8FD6
:104E6000F2E70000C80800203800002004ED00E050
:104E70002DE9F0479A46DDE9098481466FF0030386
:104E8000206B03EB82021044089D20F00706700798
:104E900007D0502080F31188BFF34F8FBFF36F8F7F
:104EA000FEE723180A5C83F834200A5C12B1401C28
:104EB0001028F6D3002784F84370072D00D3062569
:104EC000E562C4E91157201D00F057FC04F11800F9
:104ED00000F053FC2461C5F107006462A061E7643F
:104EE00084F8507052464946304600F0BFF82060C2
:104EF000B8F1000F01D0C8F80040BDE8F08700000D
:104F000030B5114900E011460A688242FBD34B6874
:104F10005C18844203D140681844486008464368DE
:104F20001C18944209D1084C103C2468A24209D0B4
:104F300052681A4442600A6812680260814200D0D6
:104F4000086030BD0460F9E784000020064841682D
:104F5000096829B14168C968C9684968016370472F
:104F60004FF0FF31FAE700003800002008484068A1
:104F7000401C4FF0500080F3118804D0BFF34F8FD6
:104F8000BFF36F8FFEE7BFF34F8FBFF36F8FFEE767
:104F90008C0000202DE9F0410546002700F0B0FD0F
:104FA000314E306808B9FFF70DFFF06805424BD16C
:104FB000C5B3083568070ED005F00700C0F108003A
:104FC0000544680707D0502080F31188BFF34F8F46
:104FD000BFF36F8FFEE72DB37068854234D8224847
:104FE000103001460C6801E020460C466168A94279
:104FF00002D221680029F7D131688C4224D0076899
:105000002168016060680837411B10290FD96019B9
:10501000420708D0502080F31188BFF34F8FBFF3B1
:105020006F8FFEE710E041606560FFF769FF616820
:105030007068401A7060B268904200D2B060F06848
:1050400001430020C4E9000100F044FF780707D0C5
:10505000502080F31188BFF34F8FBFF36F8FFEE7AF
:105060003846BDE8F08100007400002010B5031F31
:105070004FF080741C601B1F21F001011960191F83
:10508000044B0B6014390A60091F6FF002024438A8
:105090000A6010BD6D4F0008274840F201116422DC
:1050A000018000F118010978418040F203118180EC
:1050B000012181710021C1710172417A21F0070142
:1050C000491C21F038014172817A21F03C01817242
:1050D000C18962F38C01C181B0F80F1062F34F11E6
:1050E000A0F80F10428A4FF47A7161F38C02428269
:1050F000B0F8132061F34F12A0F81320B0F80D1090
:1051000048F23F026FF309010A31A0F80D10B0F820
:1051100011106FF30901A0F811104189114041816C
:10512000C17A152201F07F01A0F80B10014640F270
:105130000130FEF765BE0000104700202DE9F04762
:1051400005462DED108BF0EE608A401F00EE900AB0
:10515000B0EE61AA82B0B8EEE08A9FEDB2FAB5EE89
:10516000C08AF1EE10FA01D8B0EE4F8AAE484FF087
:1051700000084FF0010901789FEDACBB9FEDADCB6E
:105180009FEDAEDB4FF4FA7205FB05F05700AD4C16
:1051900002EBC006F3EE08AA012905D002297BD054
:1051A0002078012848D0FEE0DFEDA70A70EE600A03
:1051B00000EE105AB8EE400A9FEDA41AA44900EE82
:1051C000C10A10EE100A88427EDA2846FBF7C8FAB8
:1051D00041EC190B53EC1B2BFBF7D0F953EC192BBB
:1051E000FBF7CCF953EC1C2BFBF721F953EC1D2BEF
:1051F000FBF7C4F99FED971B53EC112BFBF7BEF99E
:10520000FBF7E6FAC8EE2A0A96FBF7F100EE101A51
:105210002061B8EEC00A84ED050AF4EEC00AF1EE92
:1052200010FA01D2C4ED050A8C49884202DD9FEDD7
:105230008C0A8DE084F8009018EE900A8949884223
:105240007DDCE068B0F17E5F03DAB7EE000A84ED42
:10525000030A94ED040A002184ED020A0846FBF7D4
:105260004DFD8FEE280A804A00208DED000AD4ED16
:10527000020A94ED030A00BF02EBC011401C91ED3D
:10528000141A042821EE201AC1EE001AC1ED141AD6
:10529000F2DB6780AEE0FFE7DFED740A30EE600A14
:1052A00010EE100AFBF769FA9FED711B53EC112BFE
:1052B000FBF764F941EC1E0B2846FBF751FA8A46CE
:1052C00005464AEC190B00E045E053EC1E2B51EC6F
:1052D000190BFBF74DF99FED681B53EC112BFBF7F6
:1052E0005FFA38D24AEC195B53EC1B2B51EC190BCB
:1052F000FBF744F953EC192BFBF740F953EC1C2B4B
:10530000FBF795F853EC1D2BFBF738F99FED5C1B71
:1053100053EC112BFBF732F9FBF75AFA96FBF7F136
:1053200000EE101A2061F8EEC00A88EE2A0AC4EDD9
:10533000050AB4EEE00AF1EE10FA03D200E00DE047
:1053400084ED050A504988427FF774AF9FED4F0AFC
:1053500084ED040A6EE784F8008024E018EE900AD9
:10536000884220DD1AEE100A4949884208DB0121F3
:105370000846FBF7C3FC94ED050A20EE2A0A0BE071
:105380001AEE100A88420BDA01210020FBF7B6FC66
:105390009FED400A30EE4A0AC0EE280ACDED000A21
:1053A0004FF4FA6025E0B4EEC8AAF1EE10FA01DB82
:1053B000207838B1B4EEC8AAF1EE10FA1AD22078EB
:1053C00058B117E001210020FBF798FC8FEE280A66
:1053D00040F6B8308DED000A0BE001210020FBF70C
:1053E0008DFC38EE4A0A4FF47A60C0EE280ACDED03
:1053F000000A6080134CB5EE000A18348DED000AE7
:10540000FF2525706846FFF729FBA4F11400817879
:1054100061714078A071E57102B0BDEC108BBDE800
:10542000F087000000000000E40000209A9999999C
:105430009999FD3F0000000000209C4000000040C2
:105440003333EB3F98000020000048423333333FB2
:105450000000A041000000403333F33F0000254529
:105460000000254500006041244900200000A042C2
:105470009A9999999999C93F0000000000003E400F
:10548000000000A09999F93F00005C4500005C45D0
:1054900000002042000020422DED028B84B0C82085
:1054A000FFF795FA00F0ACFCDFF8BC91DFF8BC81A7
:1054B0006F4C704D4FF480474FF4004A4FF4805BBF
:1054C00003900020FEF750FC28680022401C286052
:1054D00039464846FCF7D7FF012239464646404642
:1054E000FCF7D1FF012251463046FCF7CCFF0022E9
:1054F00059466148FCF7C7FF604900264FEA06009D
:1055000051F82020401CC0B216440A28F8D300EEFF
:10551000106AB8EEC00A9FED5A8A20EE080A10EE13
:10552000100AFBF72AF99FED571B53EC112BFBF7E1
:1055300025F89FED561B53EC112BFBF71FF8FBF7DB
:1055400047F9E86094ED060A84ED070A94ED050A30
:1055500084ED060A94ED040A84ED050A94ED030A2D
:1055600084ED040A94ED020A84ED030A94ED010A25
:1055700084ED020A94ED000A84ED010A00EE106A3F
:10558000B8EEC00A60EE080A9FED421A9FED420A8B
:1055900010EE810ADFED410A5FF0000080EE201A74
:1055A0009FED3F0A84ED001A85ED020A04EB8001AD
:1055B000D5ED020A91ED000A401CC0B230EE200A7F
:1055C000082885ED020AF1D3F4EE000A20EE200A45
:1055D00085ED010A10EE100AFBF7CFF89FED311BA5
:1055E00053EC112BFAF7CAFF9FED301B53EC112B34
:1055F000FAF7C4FFFBF7ECF828612E48DFED2E0A1E
:10560000642290ED060A6E4620EE200ABDEEC00A26
:1056100010EE101AADF80010018F5143ADF80210D2
:1056200090ED0D0A082120EE200ABDEEC00A10EE12
:10563000100AADF8040021480088ADF80600304695
:1056400000F094FA0821304600F090FA0821304624
:1056500000F08CFA0821304600F088FA142103A8E3
:10566000FFF7BCF92DE700000004024000100240E3
:10567000244D0020F000002000140240D807002034
:10568000CDCCCC3D6666666666660A4000000000CA
:105690000000303FED32533A3333D33F022B873D86
:1056A0000000000000000000000038400000000082
:1056B0000000F43F284700200000C8429A00002064
:1056C00070B50C46064600F07FF8154D2868C06C92
:1056D00080B92968012081F850005CB10121204681
:1056E000FFF7B6FA0F494FF080500860BFF34F8FB5
:1056F000BFF36F8F00F088F800F066F82868C46C7C
:10570000002034B116B12968C86402E02A68611E1D
:10571000D164296881F8500000F076F8204670BD09
:105720003800002004ED00E0D0E9013201699A6000
:10573000D0E901235A604A68824201D182684A60F6
:10574000002202610868401E086008687047000077
:10575000034B036003F15400086080201060704721
:105760008C02002000F108014FF0FF32C0E9011265
:10577000C160016100210160704700210161704733
:1057800030B50B685A1C02D000F1080202E0026931
:1057900004E02246546825689D42FAD953684B605C
:1057A00099608A60516008610168491C016030BDE0
:1057B00042684A6093688B609368596091600861A1
:1057C0000168491C01607047502080F31188BFF3C5
:1057D0004F8FBFF36F8F0A494868401C486001280B
:1057E0000CD10848006810F0FF0F07D0502080F35C
:1057F0001188BFF34F8FBFF36F8FFEE77047000034
:105800008C00002004ED00E00849486828B1401EE3
:10581000486001D180F311887047502080F31188CF
:10582000BFF34F8FBFF36F8FFEE700008C000020A7
:1058300070B5002827D0144DA0F108046168E8680D
:10584000014207D1502080F31188BFF34F8FBFF37F
:105850006F8FFEE722683AB1502080F31188BFF3C2
:105860004F8FBFF36F8FFEE78143616000F048F90F
:1058700060686968084468602046FFF741FBBDE83E
:10588000704000F027BB70BD740000204FF0E02096
:1058900000210161816105494FF47A720968B1FB09
:1058A000F2F1491E41610721016170473400002077
:1058B00010B5FAF7CFFC114910280ED300F1E02003
:1058C00090F8F0030A78904207D2502080F31188B4
:1058D000BFF34F8FBFF36F8FFEE7094800688968F9
:1058E00000F4E060884207D9502080F31188BFF3AC
:1058F0004F8FBFF36F8FFEE710BD00008C000020BC
:105900000CED00E010B5020014D00F48806B38B1E8
:10591000502080F31188BFF34F8FBFF36F8FFEE7E6
:1059200000F0EEF800211046FFF792F900F0D2FAED
:10593000002807D105494FF080500860BFF34F8F12
:10594000BFF36F8F10BD00003800002004ED00E0B1
:1059500070B50D4604000BD095B11E4A906BB8B1DE
:10596000502080F31188BFF34F8FBFF36F8FFEE796
:10597000502080F31188BFF34F8FBFF36F8FFEE786
:10598000502080F31188BFF34F8FBFF36F8FFEE776
:1059900000F0B6F8526923685919934204D98B4232
:1059A0000AD9914202D807E08B42FAD9881A2160BD
:1059B0000021FFF74DF900E0216000F08BFA00288C
:1059C00007D105494FF080500860BFF34F8FBFF3F8
:1059D0006F8F70BD3800002004ED00E02DE9F0412C
:1059E0008846040015D0FFF763FF5020EFF31186BF
:1059F00080F31188BFF34F8FBFF36F8F94F850007F
:105A0000022184F85010E16C491CE164012808D09F
:105A100037E0502080F31188BFF34F8FBFF36F8FB3
:105A2000FEE7A06A38B1502080F31188BFF34F8F92
:105A3000BFF36F8FFEE7154DA86B012778B104F116
:105A400018011348FFF7B4FEE06A2968C96A884262
:105A500017D9B8F1000F13D0C8F8007011E0201D5D
:105A6000FFF762FEE16AAA6907FA01F01043A86134
:105A700001EB81000649B43901EB8000211DE1E70B
:105A80006F6286F31188BDE8F081000038000020C5
:105A9000B408002010B586B00024039405AA04A918
:105AA00003A80494FFF754FEDDE903010094CDE957
:105AB000011000230EA11048059A00F068F90F4963
:105AC0000028486311D0502080F31188BFF34F8F16
:105AD000BFF36F8F4FF0FF3008630120C8614C6146
